:1000000080313E28FF3FFF3F7E1480310B1F3C288C
:100010002100111E15282000111E1528220061083C
:100020008A0060080A0080313C282100911E2228A5
:100030002000911E222822005F088A005E080A0024
:1000400080313C282100921D2F282000921D2F284E
:10005000210053088A0052080A0080313C28210000
:1000600091192000911928282100111C3C282000FA
:10007000111C3C289B31AE237E10090080314028A2
:10008000153084009B308500633086000130870086
:1000900009309A31E9228031FD3084009A308500A0
:1000A000E03086000130870007309A31E922803144
:1000B000F001F101FA01CA308400003085001B30E4
:1000C0009A31E322803120308400013085003430C1
:1000D0009A31E3228031A030840001308500403025
:1000E0009A31E32280312030840002308500403094
:1000F0009A31E3227E1020008C31352C6D302000A7
:10010000E9009830EA009B31762380317017210096
:10011000D801D901F0125908C1004108D00058088F
:10012000C1004108D1000E1122000E159E31E926B2
:100130008031550803199F2822000E10A1282200A3
:100140000E149B314C2380319A31C52280319A3173
:100150007522803103302100C2000830C1007730A1
:10016000890BB028C10BB028C20BB0289231F12204
:1001700080319E31B52680319031FD2080312100C3
:10018000C10041082400E700670A0319701FD02846
:100190005A302000E9009930EA009B317623803103
:1001A00024302000E9009A30EA009B317623803128
:1001B00020008D1F2629F01A27299031B120803187
:1001C0002100C10041082400E700670A031D701FD9
:1001D000ED2821309D31CE258031F013F016883185
:1001E0000020803103302100C2004630C100CD30F4
:1001F000890BF828C10BF828C20BF828003293317C
:10020000AD2380312100C10041082400E700670AC6
:1002100003191A29701F14292A302000E900993087
:10022000EA009B317623803180302100C1004108F3
:10023000D900D8010B1321005908C1004108D00092
:100240005808C1004108D1000B172729F012F01FF0
:100250006C299031B12080312100C1004108240077
:10026000E700670A031D701F392921309D31CE2513
:10027000803103302100C2005630C1006330890B49
:100280003F29C10B3F29C20B3F299331AD23803158
:100290002100C10041082400E700670A0319602912
:1002A000701F5A294E302000E9009930EA009B3136
:1002B0007623803180302100C1004108D900D80167
:1002C0000B1321005908C1004108D0005808C10093
:1002D0004108D1000B17F0132100D601D60AF11CFA
:1002E000D8282400EB019B3104238031003A031904
:1002F000A8299D31AA258031C10041082400E700CA
:100300006708E03E2100C100FF3003180030C20042
:10031000003042025F300319410203189C29240077
:1003200067082100C10024006B08443E86000130AC
:1003300087002100410881000F3024006B0603195B
:10034000A82901302100C10041082400EB077329CE
:1003500024006B08443E8600013087008101113083
:100360006B02031CBB299C302000E9009930EA0095
:100370009B31762380312400EB01882F7D302000D3
:10038000E9009930EA006630EB009930EC009B31CF
:1003900076238031B52F01302100C10041082400AF
:1003A000EB0724006B08443E8600013087000108FB
:1003B0009B31C3238031003A0319CB296B08443E9B
:1003C0002000A4000130A5009531D92580312408F2
:1003D0002100C10041082400EA006B08443E860069
:1003E0000130870001089B31C3238031FF3A031D90
:1003F000002A01302100C10041082400EB07ED294B
:100400006B08443E2000A4000130A5009531D92599
:10041000803125082400E900200024082400E80099
:100420006908803A2100C10090304102031D1B2A57
:100430000030240068020318222A083024006A02CF
:10044000031C2B2A72302000E9009930EA009B310E
:1004500076238031B52F6A35203E86000130870033
:100460006808C03F6908C13F701F522A5E302000F3
:10047000E9009830EA0024006A082100C100C201A6
:1004800041082000EB00210042082000EC0024007D
:1004900069082000EE00240068082000ED009B3170
:1004A0007623803124006908F9006808F8006A089A
:1004B0009D316525803124006A0830382100C10053
:1004C00041082400EA006A082100C1004108200018
:1004D000A200240069082000A4002400680820006D
:1004E000A3004A309531592580312100C2004208CD
:1004F0002400E4006408031D822A12302000E90071
:100500009A30862A1C302000E9009A30EA009B319C
:100510007623803194310E248031B52F01302100B3
:10052000C10041082400EB0724006B08443E86000C
:100530000130870001089B31C3238031003A031941
:100540008E2A6B08443E2000A4000130A50095319E
:10055000D925803124082100C10041082400EA0087
:1005600008306A02031CBC2A02302000E9009930DE
:10057000EA009B317623803124006B08443E8600DC
:100580000130870001089B31C3238031003A0319F1
:10059000D02A01302100C10041082400EB07BC2A09
:1005A0006B08443E2000A4000130A5009531D925F8
:1005B000803125082400E600200024082400E500FE
:1005C0006608803A2100C10080304102031DEB2AF9
:1005D0008030240065020318FB2A24006608803A54
:1005E0002100C1007F304102031DF92A8030240020
:1005F00065020318042B00302000E9009830EA005F
:100600009B3176238031B52F240065082100C1007D
:1006100024006A08303E860001308700210041082E
:10062000810024006A08303E8600013087000108FE
:100630002100C1004108F50024006A08303E9C31C9
:10064000B5248031701F442B59302000E9009830C8
:10065000EA0024006A082100C100C201410820000C
:10066000EB00210042082000EC0024006A08303E24
:1006700086000130870001082000ED00EE01ED1B2F
:10068000EE039B317623803124006A082100C100EB
:1006900041082000A20024006A35203E8600013077
:1006A0008700403F2000A300413FA4004A3095311D
:1006B000592580312100C20042082400E40064086A
:1006C000031D822AC7302000E9009930862A0130B4
:1006D0002100C10041082400EB076B08443E86005E
:1006E0000130870001089B31C3238031003A031990
:1006F000672B6B08443E86000130870030300106CE
:10070000031DBC2BE801E90170302100C100410844
:100710002000A200240069082000A400240068082A
:100720002000A3004A309531592580312100C200B4
:1007300042082400E400701FA52B1D302000E900B2
:100740009930EA009B31762380312400EB016B3530
:10075000203E8600013087000030C03FC13F01309D
:100760002100C10041082400EB0708306B02031C84
:10077000A72B88310A20803124006B08443E860074
:100780000130870031300106031DB52FEB016B08E6
:10079000203E8600023087008101701FE32B10305D
:1007A0002000E9009930EA0024006B082100C10014
:1007B000C20141082000EB00210042082000EC00AB
:1007C0009B317623803101302100C1004108240093
:1007D000EB0720306B02031CC72B9231F1228031D2
:1007E00088310A208031B52F01302100C100410835
:1007F0002400EB076B08443E860001308700203060
:1008000001060319F42B6B08443E86000130870073
:1008100001082100C10041082400EA0031306A06C5
:10082000031D142C7017152C7013701FB52FAE30CC
:100830002000E9009930EA009B3176238031B52F02
:1008400001302100C10041082400EB0724006B089F
:10085000443E86000130870001089B31C32380316C
:10086000003A0319202C6B08443E2000A4000130FC
:10087000A5009531D925803124082100C100410807
:100880002400EA0020306A02031C552CA43020000A
:10089000E9009830EA009B3176238031B52F013092
:1008A0002100C10041082400EB076B08443E86008C
:1008B0000130870001089B31C3238031FF3A0319BF
:1008C0004F2C6B08443E2000A4000130A500953158
:1008D000D925803125082400E900200024082400BF
:1008E000E8006908803A2100C10090304102031DF0
:1008F0007C2C003024006802031C872C2E30200042
:10090000E9009830EA009B3176238031B52F24002E
:100910006808083E2100C10000302400693D210024
:10092000C2000430C300420DC20CC10CC30B932C97
:100930004108C40044082400E40064082100C10008
:1009400024006A08203E860002308700210041080A
:100950008100701FD42CC6302000E9009830EA00D6
:1009600024006A082100C100C20141082000EB00F8
:10097000210042082000EC00240064082100C3008C
:10098000C401C30EC40EF030C40543080F39C404BB
:10099000F030C30543082000ED002100440820008A
:1009A000EE009B31762380319231F1228031240098
:1009B00064082100C1004108F50024006A089C3148
:1009C000B52480318A2A2400EB016B08203E860082
:1009D0000230870001082100C100C201C10EC20E11
:1009E000F030C20541080F39C204F030C10541089A
:1009F0002400E800210042082400E900D63020004D
:100A0000E9009830EA0024006B082100C100C2010F
:100A100041082000EB00210042082000EC002400E7
:100A200069082000EE00240068082000ED009B31DA
:100A30007623803101302100C10041082400EB07FA
:100A400020306B02031CE52C0A309D31CE2580310D
:100A50002400EB016B082100C10041082000A30025
:100A60004A3092313E22803124082400E9002000DF
:100A700023082400E800680E0F39E800690EF039F9
:100A8000E804690E0F39E900F030E91D0030E9048F
:100A90006B08303E86000130870001082100C1004C
:100AA000C201C11BC203410824006802E500210005
:100AB00042082400693BE600E61F602DE501E601DF
:100AC0006608803A2100C10090304102031D6B2D61
:100AD000003024006502031C722DFF302400E50065
:100AE0000F30E600B5302000E9009830EA0024001D
:100AF0006B082100C100C20141082000EB00210069
:100B000042082000EC00240066082000EE002400CB
:100B100065082000ED009B317623803101302100F3
:100B2000C10041082400EB0708306B02031C2A2D8A
:100B30000A309D31CE2580312400EB011730200092
:100B4000E9009830EA0024006B082100C100C201CE
:100B500041082000EB00210042082000EC002400A6
:100B60006B08303E86000130870001082000ED0050
:100B7000EE01ED1BEE039B31762380310130210025
:100B8000C10041082400EB0708306B020318B52FA1
:100B90009E2D01302100C10041082400EB076B08A5
:100BA000443E860001308700203001060319C92D1C
:100BB0006B08443E86000130870001082100C10017
:100BC00041082400EA0030306A06031DF22D22009D
:100BD0000E142100D501701F8A2A92302000E900EE
:100BE0009930862A22000E102100D501D50A9B31AA
:100BF0004C2380319A31C522803103302100C2005C
:100C00000830C1007730890B032EC10B032EC20BB5
:100C1000032E9231F12280319E31B5268031903100
:100C2000FD2080312100C10041082400E700670A4F
:100C30000319701F232E5A302000E9009930EA0072
:100C40009B3176238031701F8A2AA5302000E9006D
:100C50009930862A0130C10041082400EB076B0857
:100C6000443E2000A4000130A5009531D9258031F3
:100C700024082100C10041082400EA006A08033961
:100C80002100C10041082400EA006A082100C100D7
:100C90004108B9006B309431E12480313A082400D6
:100CA000E900210039082400E8006A08031D682EC5
:100CB000F4302000E9009830EA0024006835200074
:100CC000EB002400690D2000EC009B31762380317D
:100CD00024006A03031D842E42302000E90099306D
:100CE000EA002230F5000030F60024006908F80020
:100CF0006808F7009131EC2180317608EC00750826
:100D0000EB009B3176238031023024006A06031DFC
:100D1000B52F80302000E9009830EA002400690DEA
:100D2000690C2000EC002400680C2000EB009B31D3
:100D300076238031B52F5808C100C2015908C3007D
:100D4000C4014308C400C301410843042400E8006F
:100D50002100420844042400E900D5302000E900C5
:100D60009930EA009B31762380312400E91FCA2E96
:100D70002D309D31CE25803124006908F9006808A6
:100D8000F8009C316824803179082400E900780853
:100D9000E800CE2E2B309D31CE258031240069080D
:100DA0002000A500240068082000A4008030A600D0
:100DB0000030A7009E313B26803127082400E30045
:100DC000200026082400E200200025082400E1007D
:100DD000200024082400E00020302000E9009A30A0
:100DE000EA00240061082000EC00240060082000D4
:100DF000EB009B317623803124006308F600620803
:100E0000F5006430F7000030F8009D310A2580318C
:100E100076082400E9007508E8000C302000E9009D
:100E20009A30EA00240069082100C2002400680802
:100E30002100C1000730C300420DC20CC10CC30B1E
:100E40001C2F41082000EB00210042082000EC008C
:100E50009B3176238031B52F01302100C10041083C
:100E60002400EB076B08443E8600013087002030E9
:100E7000010603192C2F6B08443E923197228031D2
:100E80002100C10041082400EA0008306A02031C66
:100E9000702F7F306A020318702F92302000E90013
:100EA0009830EA0024006A082100C100C20141080C
:100EB0002000EB00210042082000EC009B3176234B
:100EC000803124006A082100C1004108D400540880
:100ED000C1004108F50039309C31B52480318A2A9F
:100EE00044302000E9009830EA009B3176238031BD
:100EF000B52F701FB52FB7302000E9009930EA00F8
:100F00004430EB000130EC009B3176238031B52F6B
:100F1000220044082100C100C2014208003A03191E
:100F2000922F792F4108413A03192A2E033A0319C7
:100F3000F42B013A0319942A073A0319D1290D3ADF
:100F400003192C2F053A03199B2E1C3A0319C92D9E
:100F5000023A0319E32C063A0319262C023A031924
:100F6000BE290C3A0319672B792F2200C401F11016
:100F7000D028A101F81FC32FF709F809F70A0319B0
:100F8000F80AA101A10AF61FCA2FF509F609F50A08
:100F90000319F60A750876040319F12FA001A00AB7
:100FA000F61BDC2F0130F535F60D890BD32F013000
:100FB000F9007908A007D02F76087802031DE22FE8
:100FC00075087702031CE82F7508F7027608F83BCE
:100FD0000130F636F50C890BE92F0130A002031D14
:100FE000DC2F21080319F92FF709F809F70A03196B
:100FF000F80A7808F6007708F50008000800FF3FB7
:1010000022005708F6005608F5009B31672321009F
:10101000DA0108002000A301A5012508203E860072
:10102000023087000108A0002008A400230824073C
:10103000A0002008A3002408A0002008F50025082F
:101040009C31B524883101302000A0002008A5077C
:1010500020302502031C0D28A5012535203E8600E1
:10106000013087000108A0002008A40023082407FD
:10107000A0002008A3002408A0002008F5002535C2
:10108000203E9C31B524883120002535203E860045
:1010900001308700403FA000413FA1002108A2008D
:1010A0002208A40023082407A0002008A300240885
:1010B000A0002008F5002535213E9C31B52488315B
:1010C00001302000A0002008A50708302502031CDD
:1010D0002D28A5012508303E860001308700010833
:1010E000A0002008A40023082407A0002008A300D3
:1010F0002408A0002008F5002508303E9C31B524C6
:10110000883101302000A0002008A5070830250202
:10111000031C6A282308210055072000A00020088E
:10112000A300210055082000A0002008F500383059
:101130009C31B52488312000230821005407200069
:10114000A0002008A300210054082000A0002008CF
:10115000F50039309C31B524883120002308A000E7
:101160002008F5003A309C31B5240800B101203048
:10117000860000308700473FF500F51FE12820007A
:10118000A009A109A209A309A409A509A609A709FB
:10119000A00A031DDE28A10A031DDE28A20A031DE2
:1011A000DE28A30A031DDE28A40A031DDE28A50AE3
:1011B000031DDE28A60A031DDE28A70A2000B101B0
:1011C000B10A2830860000308700473FF500F51F40
:1011D0000D292000A809A909AA09AB09AC09AD0984
:1011E000AE09AF09A80A031D0829A90A031D082989
:1011F000AA0A031D0829AB0A031D0829AC0A031D0E
:101200000829AD0A031D0829AE0A031D0829AF0AE3
:101210000130F50075082000B1063230860000303C
:1012200087000830F50000301E00F50B142920005F
:10123000200821042204230424042504260427046E
:1012400003197829B001B00AA71B3329A035A10DD5
:10125000A20DA30DA40DA50DA60DA70D0130F5003F
:101260007508B0072429B235B30DB40DB50DB60D10
:10127000B70DB80DB90D27082F02031D59292608EF
:101280002E02031D592925082D02031D5929240862
:101290002C02031D592923082B02031D592922085A
:1012A0002A02031D592921082902031D5929200852
:1012B0002802031C6C292008A8022108A93B220847
:1012C000AA3B2308AB3B2408AC3B2508AD3B2608D2
:1012D000AE3B2708AF3B3214A736A60CA50CA40CD6
:1012E000A30CA20CA10CA00C0130B002031D3329E9
:1012F000310803199929B209B309B409B509B60926
:10130000B709B809B909B20A031D9929B30A031D1F
:101310009929B40A031D9929B50A031D9929B60A0A
:10132000031D9929B70A031D9929B80A031D992994
:10133000B90A20003208A0003308A1003408A20036
:101340003508A3003608A4003708A5003808A60011
:101350003908A70008002000C9002100CD1BB429CE
:10136000FD30CE05FF30CF054D08803A2000C1008A
:1013700080304102031DBF29013021004C020318B7
:10138000C72901302000CA000030CB00CF2921003E
:101390004D082000CB0021004C082000CA0021008D
:1013A0004B082000CD0021004A082000CC0021007D
:1013B0004E1EDF29FE302000CC07FF30CD3D20003F
:1013C0003808CE003908CF003A08D0003B08D100D9
:1013D0003C08D2003D08D3003E08D4003F08D500A9
:1013E0001F30D6000030D7002300DF01862AFF30EF
:1013F0002000D607FF30D73D0F304E05D800003013
:101400004F05D9005908803AC10080304102031DC0
:101410000B2A0A305802031C112A20005808573E94
:10142000142A20005808303ED8000030593DD90019
:101430004008BF3EC100FF3003180030C20000303A
:1014400042021A30031941020318442A203058047A
:10145000C10000305904C20041089F3EC300FF3064
:10146000423DC400003044021A30031943020318FD
:10147000442A5908F8005808F7009B319A2389310B
:101480007808D9007708D8005808C1005608C03E2F
:1014900086000130870041088100FF30CA07FF3015
:1014A000CB3DFF30CC07FF30CD3D4E3086000030C5
:1014B0008700403FC100413FC200423FC300433F5D
:1014C000C400443FC500453FC600463FC700473FF4
:1014D000C80004302000C836C70CC60CC50CC40CAC
:1014E000C30CC20CC10C890B6A2A20004808D50025
:1014F0004708D4004608D3004508D2004408D1006C
:101500004308D0004208CF004108CE002000570811
:10151000803AC10080304102031D902A02305602F9
:10152000031CB72A20004E084F04500451045204F3
:10153000530454045504031DF7294B08803AC10095
:1015400080304102031DA62A01304A020318F72900
:1015500020004D08803AC10080304102031DB22AAC
:1015600001304C02031CB72A2100CE18F7292100B4
:101570004E1ED52AFF302000D607FF30D73D400849
:10158000C1005608C03E8600013087004108810036
:10159000FF30D607FF30D73D3030C1005608C03E7F
:1015A0008600013087004108810020005608C03EB7
:1015B000C1004108AF004D08B1004C08B000490817
:1015C000913149213008B9002F08B80008002000E7
:1015D000C7003A08CE003B08CF003C08D0003D08C9
:1015E000D1003E08D2003F08D3004008D400410893
:1015F000D5004E30860000308700473FC200C21F32
:10160000032B0130042B00302000C300C401430829
:10161000CC004408CD004C084D0403192D2BCE09F5
:10162000CF09D009D109D209D309D409D509CE0AE5
:10163000031D2D2BCF0A031D2D2BD00A031D2D2B8F
:10164000D10A031D2D2BD20A031D2D2BD30A031DF6
:101650002D2BD40A031D2D2BD50A2100CD1B342B95
:10166000FD30CE05FF30CF054D08803A2000C20086
:1016700080304202031D3F2B013021004C02031831
:10168000472B01302000C8000030C9004F2B21003B
:101690004D082000C90021004C082000C80021008E
:1016A0004B082000CB0021004A082000CA004C084B
:1016B0004D04031D5E2B21004E1D632BFF302000C7
:1016C000CA07FF30CB3D1F302000D6000030D700C6
:1016D0002300DF01F72B20004E084F045004510473
:1016E0005204530454045504031D902B4908803AB6
:1016F000C20080304202031D7F2B013048020318D4
:10170000902B20004B08803AC20080304202031D1B
:101710008B2B01304A02031C032C2100CE1C032C0E
:10172000FF302000D607FF30D73D0A30A000A101CE
:10173000A201A301A401A501A601A7014E08A800CA
:101740004F08A9005008AA005108AB005208AC008D
:101750005308AD005408AE005508AF009731242758
:101760008A312108F9002008F8009C3168248A3168
:101770007808303E2000C2005608C03E8600013086
:10178000870042088100FF30C807FF30C93DFF30A5
:10179000CA07FF30CB3D0A30A000A101A201A3017E
:1017A000A401A501A601A7014E08A8004F08A900A1
:1017B0005008AA005108AB005208AC005308AD0015
:1017C0005408AE005508AF008831B6208A31200891
:1017D000CE002108CF002208D0002308D100240821
:1017E000D2002508D3002608D4002708D500200001
:1017F0005708803AC20080304202031D012C01309C
:10180000560203186B2B20004C084D04031D0B2CB3
:1018100021004E1D232CFF302000D607FF30D73D7E
:101820004C084D04031D162C2B30172C2D30C500F1
:101830000030C6004508C2005608C03E8600013090
:1018400087004208810020005608C03EC2004208BE
:10185000AF004B08B1004A08B00047089131492158
:101860003008BB002F08BA000800F1109B31882314
:101870008C318B170B17CE302000E9009930EA002D
:101880009B3176238C312400E701EB016B089B31FF
:1018900028238C312100C10041082400EA00670898
:1018A0006A072100C10041082400E70020306B02D4
:1018B0000318662C6A082100C10024006B08203E32
:1018C000860002308700210041088100203024007A
:1018D0006B02031CC32C30306B020318C32C6B1833
:1018E0008B2C6A082100C100C20124006B08E03E75
:1018F0002100C300FF3003180030C400440DC40CA5
:10190000C30C43080907203E8600013087004108C8
:10191000C03F4208C13F24006B1CC32C6B08E03E53
:101920002100C100FF3003180030C200420DC20C7C
:10193000C10C41080907203E8600013087002400C1
:101940006A082100C300C4014308C400C301403F2A
:101950004307C600413F443DC70024006B08E03EFA
:101960002100C800FF3003180030C900490DC90C20
:10197000C80C48080907203E860001308700460849
:10198000C03F4708C13F303024006B02031CD82CF5
:1019900038306B020318D82C6A082100C1002400DB
:1019A0006B08003E8600013087002100410881005D
:1019B000383024006B06031DE22C6A082100C100A8
:1019C0004108D500393024006B06031DEC2C6A0851
:1019D0002100C1004108D40001302100C1004108AC
:1019E0002400EB073A306B02031C462C3A309B3143
:1019F00028238C312100C10041082400EA006A0834
:101A00006706803103197E2836302000E9009930BE
:101A1000EA009B3176238C312400E701EB016B084F
:101A2000203E8600023087008101F5016B089C3161
:101A3000B5248C3101302100C10041082400EB079E
:101A400020306B02031C0F2DEB016B360907203E83
:101A50008600013087000030C03FC13FF5016B08B0
:101A6000203E9C31B5248C3101302100C100410859
:101A70002400EB0710306B02031C252DEB016B08D3
:101A8000303E8600013087008101F5016B08303E51
:101A90009C31B5248C3101302100C1004108240063
:101AA000EB0708306B02031C3F2D2100D501D50A3E
:101AB0002400670821005507C10041082400E70001
:101AC00021005508C1004108F50038309C31B5248B
:101AD0008C3148302100C1004108D400240067083F
:101AE00021005407C10041082400E70021005408E8
:101AF000C1004108F50039309C31B5248C312400F7
:101B000067082100C1004108F5003A309C31B52436
:101B1000803186282100B70020005A0886008701FE
:101B2000403FDC00413FDD005C0884005D0885002B
:101B30001200253A031DDB2F5A0886008701013069
:101B4000810741310318810A2100CA01CB01CE016E
:101B5000CF01FF30CC00FF30CD00B301B401CD2D5B
:101B600021004E1420005A088600870101308107A9
:101B700041310318810ACD2D2100CE14B22D210050
:101B80004E15B22D2100CE15B22D21004E16B22DCC
:101B900001302100B3000030B400210033083404C8
:101BA000031DF82D20005A0886008701403FDC0005
:101BB000413FDD005C0884005D0885000008DE0010
:101BC000DF015F08003A0319E62DC82D5E08203AB0
:101BD0000319C22D033A0319C52D083A0319BF2D65
:101BE000063A0319B02D1D3A0319BC2DC82DCD2D71
:101BF0004E1CFE2DFD30CE05FF30CF0520005A08CB
:101C000086008701403FDC00413FDD005C08840026
:101C10005D08850012002A3A031D2C2E5A08860002
:101C200087010130810741310318810A5B08860072
:101C3000870101088400850102308107003F2100EF
:101C4000CA00013FCB00CB1F602E4E14CA09CB093E
:101C5000CA0A0319CB0A602E5A0886008701403F42
:101C6000A400413FA5009531D9258D3125082100DB
:101C7000CB00200024082100CA0020005A0886005A
:101C80008701403FDC00413FDD005C0884005D08C7
:101C900085000008D03EDE00FF3003180030DF0072
:101CA00000305F020A3003195E020318602E5A08E2
:101CB000860087010130810741310318810A3D2EDA
:101CC00020005A0886008701403FDC00413FDD00CC
:101CD0005C0884005D0885001200643A03197F2EB9
:101CE0005A0886008701403FDC00413FDD005C0868
:101CF00084005D0885001200693A031DCB2E5A0846
:101D0000860087010130810741310318810A5B0891
:101D10008600870101088400850102308107003FA9
:101D2000DC00013FDD005C082100A00020005D0810
:101D30002100A100890D893B8909A200A300A4000C
:101D4000A500A600A70020082000BA002100210855
:101D50002000BB00210022082000BC002100230835
:101D60002000BD00210024082000BE00210025081D
:101D70002000BF00210026082000C0002100270805
:101D80002000C100210037088A31E7223B08DB0030
:101D90003A08DA0008005A0886008701403FDC0054
:101DA000413FDD005C0884005D0885001200733A45
:101DB0000319F02E5A0886008701403FA000413FDA
:101DC000A1001830A2009A30A3000330A400003014
:101DD000A50091319A218D3120082104031D2F2F58
:101DE0005A0886008701403FDC00413FDD005C0867
:101DF00084005D0885001200733A0319012F033037
:101E0000022F01302100B5000030B60020005A0832
:101E10008600870121003508810741313608813D60
:101E20007F3120005B08860087010108840085015E
:101E300002308107003F2100B000013FB1003108AE
:101E40002000A900210030082000A8002100370848
:101E500096315F262908DB002808DA0008005A08B6
:101E600086008701403FDC00413FDD005C088400C4
:101E70005D0885001200783A03194D2F5A08860034
:101E80008701403FDC00413FDD005C0884005D08C5
:101E900085001200583A031DA72F5A0886008701B3
:101EA000403FDC00413FDD005C0884005D088500A8
:101EB0000008DE005E082100B20020005A088600FB
:101EC00087010130810741310318810A5B088600D0
:101ED000870101088400850102308107003F21004D
:101EE000A800013FA900AA01AB01AC01AD01AE0100
:101EF000AF0128082000B800210029082000B900FF
:101F000021002A082000BA0021002B082000BB0075
:101F100021002C082000BC0021002D082000BD005D
:101F200021002E082000BE0021002F082000BF0045
:101F3000210032082000DC005C08C00021003708C6
:101F40008931AB213908DB003808DA0008005A086B
:101F500086008701403FDC00413FDD005C088400D3
:101F60005D0885001200253A031DD02F5A0886000F
:101F700087010130810741310318810A2530A00013
:101F80000030A100210037082000DC005C08A2001E
:101F90009F31212701302000DA000030DB000800EB
:101FA0005A08860087010130810741310318810AF0
:101FB000DA01DB0108005A0886008701403FDC0097
:101FC000413FDD005C0884005D0885000008DE00FC
:101FD000DF015E08A0005F08A10021003708200093
:101FE000E0006008A2009F3121278D3120005A08AF
:101FF000860087010130810741310318810ACA2F09
:10200000FF3FE6006208E8006108E7002200B8012F
:10201000B9012000670884006808850012000319D0
:1020200025286730E4006408DA006308E5006508E5
:10203000DB0066088D318A2590315A082200B807E6
:1020400020005B082200B93D092822003908200041
:10205000E200220038082000E10008002000A00073
:10206000A101A01F35280130362800309B314023C4
:10207000903120002035F8007808A00001309C3114
:10208000ED2490319A31A522903100309C31ED241D
:1020900090310130F80078082000A10708302102B3
:1020A000031C312801309B31402390319A31A52205
:1020B000903101309C31ED2490319A31A52290313C
:1020C000F01120000D18F01500309C31ED249031F6
:1020D000F01D6C2800300800FF3008002000A00030
:1020E000A20100309C31ED24903121000D1420001C
:1020F000A1012235F8007808A20001309C31ED24BE
:10210000903120000D1C892822080138F800780839
:10211000A2009A31A522903100309C31ED249031FB
:102120000130F80078082000A10708302102031CC4
:10213000792820089B31402390319A31A522903193
:1021400001309C31ED2490319A31A522903100303C
:102150009C31ED24903101309B3140232000220836
:1021600008009C314F2490312100543590312E20AD
:1021700090312100B9003908BA003A08031DDD2862
:10218000701FDB28DC302000E9009930D428701F54
:10219000DB28EE302000E9009930D428701FDB28BE
:1021A00000302000E9009A30EA006330EB00013093
:1021B000EC009B31762300300800013090312E2056
:1021C00090312100B9003908BA003A080319C7282C
:1021D000FC3090312E2090312100B9003908BA002E
:1021E0003A080319CE289E3161269031F010031869
:1021F000F014F01CDB28FF3008009C314F24903194
:102200002100543590312E2090312100B900390839
:10221000BA003A08031D2929701F2729C030200061
:10222000E90099302029701F2729E8302000E900B3
:1022300099302029701F2729FA302000E9009930B1
:10224000EA006330EB000130EC009B317623003074
:102250000800043090312E2090312100B900390857
:10226000BA003A0803191329603090312E209031BA
:102270002100B9003908BA003A0803191A299E3119
:1022800061269031701103187015701D2729FF30D9
:102290000800B70021004E1C562920003708B20064
:1022A0003208F8002F089E31162691312000B11B0C
:1022B0005E293108B6003008B5006029B501B601C5
:1022C000B301B4013408803AB2003608803A3202D1
:1022D000031D6C29350833020318802920302000A3
:1022E000A0000030A1003708B2003208A2009F31E0
:1022F0002127913101302000B3070030B43D62291D
:1023000021004E188C2920003708B2003208F8004E
:102310002F089E311626913120002F08F50001303C
:10232000F6009B31D82335087507AF003608763D97
:10233000B00008002108F7002008F6002308F90083
:102340002208F8000130A4020030A53B240A031D36
:10235000D429250A031DD429A001A1010800780869
:1023600084007908850012000319DB29240825045C
:102370000319DB2978088400790885000008F50036
:10238000760884007708850000087506031DDB29A0
:102390000130F6070030F73D0130F8070030F93D15
:1023A0000130A4020030A53B760884007708850040
:1023B0001200031DAF297608840077088500000805
:1023C000F500780884007908850000087502A000EF
:1023D000A101031CA10308002000A101F61FF72999
:1023E000F509F609F50A0319F60AA101A10AF81F71
:1023F000022AF709F809F70A0319F80A0130F90067
:102400007908A106A201A301750876040319312AEF
:10241000A001A00AF61B162A0130F535F60D890B2E
:102420000D2A0130F9007908A0070A2A0130A235E7
:10243000A30D890B172A76087802031D212A750837
:102440007702031C282A7508F7027608F83B221445
:102450000130F636F50C890B292A0130A002031D44
:10246000162A21080319392AA209A309A20A031965
:10247000A30A2308F6002208F5000800AA00FF308E
:10248000A5002508A800FF30A5002508A9002308FD
:102490000739A5002508A3009C314F249231200064
:1024A0002A35FE3990312E2092312000A5002508D2
:1024B000AB002B0A031D652A2308103890312E200B
:1024C00092312000A5002508AB002B0A031D752AB8
:1024D0009C314F249231031420002A0D90312E207C
:1024E00092312000A5002508AB002B0A031D862A87
:1024F000003090316E209231A5002508A8000030F0
:1025000090316E209231A5002508A9009E316126E8
:1025100020002808A500A6012508A600A501290875
:102520002507A30026080318260AA4000800200097
:10253000AF00AE01B101DA2A31082F07A800280840
:102540008600013087000108A9002908B000300882
:10255000A800A9012808F7002908F8009E318B2659
:102560009231583030060319B72A0130B82A0030AA
:10257000AA00AB0177082A05AC0078082B05AD004E
:102580002C082D040319D62A2E08A8000330A835DC
:10259000FF3E031DC72A2835A9002908AE003008D0
:1025A0009D31F2259231A8002808AE070130A8001D
:1025B0002808B10731082F07A80028088600013035
:1025C000870001080319EF2A31082F07A8002808FF
:1025D0008600013087000A300106031D9C2A2E0860
:1025E00008002000AA01AB0122008D118D121830C5
:1025F0002000A0002008AC0020302C07A0002A08F2
:102600002007A10021088600023087000108A200EF
:10261000A3012208A6002308A7002708A100260876
:10262000A000A00EA10EF030A10520080F39A104D2
:10263000F030A0052B08A3002A08A200220EF039D2
:10264000A300A2012208003EA4001030233DA500F3
:1026500020082404A80021082504A9002908F60060
:102660002808F5009D318625923120002C08F83E7F
:10267000A0002008AC00AC1FFC2A22008D118D1692
:1026800001302000AA070030AB3D00302B0208309B
:1026900003192A0203180800F42A7A08A03E8600CB
:1026A00001308700810123001D1D622B7A08A03EA6
:1026B000860001308700811422005D088A005C08D2
:1026C0000A00933123009D1C712B7A08A03E8600DE
:1026D00001308700011522005B088A005A080A00B1
:1026E00093317A08A03E8600013087000108031963
:1026F000802B220059088A0058080A0093310800EC
:1027000023001908F2007A08B03E860001308700E5
:10271000720881000130F2007208FA0710307A0264
:102720000318FA010130F20072082100E1070A30B3
:1027300023001906031D9E2B01309F2B0030F20051
:102740000D301906031DA62B0130A72B0030720493
:10275000003803190800F11408009C314F2493310C
:102760002100543590312E2093312100B9003908D1
:10277000BA003A08031DD92B701FD72BE230200076
:10278000E9009930D02B701FD72BF4302000E900DE
:102790009930D02B701FD72B06302000E9009A30DB
:1027A000EA006330EB000130EC009B31762300300F
:1027B0000800003090312E2093312100B9003908F3
:1027C000BA003A080319C32B9C314F2493310314E8
:1027D0002100540D90312E2093312100B900390889
:1027E000BA003A080319CA2B003090316E20933199
:1027F0002100B9003908D900013090316E209331A1
:102800002100B9003908D8009E316126933170103B
:1028100003187014701CD72BFF3008002000A4018F
:10282000A5012508203E8600023087000108240704
:10283000A0002008A4000130A0002008A507203037
:102840002502031C112CA5012535203E86000130F0
:1028500087000108A0002008A30024082307A00087
:102860002008A4002535203E860001308700403F27
:10287000A000413FA1002108A2002208A3002408D3
:102880002307A0002008A4000130A0002008A5070D
:1028900008302502031C242CA5012508303E8600A3
:1028A0000130870001082407A0002008A40001309F
:1028B000A0002008A50708302502031C4D2C240881
:1028C000210055072000A0002008A40024082100B2
:1028D00054072000A0002008A4002408A00020081D
:1028E000F5003A309C31B52408009A3169229431C0
:1028F0009A31EF229431003A0319882C9A317C22C4
:102900009431003A0319862C0130912C0230912C1D
:102910009A317C229431003A0319902C0330912C87
:102920000430F30073082100DC00C82C9A316C22BB
:10293000943121005B08D03E8600870101089A315E
:102940008C2294310130F30073082100DB07DE2C68
:102950009A316C229431F30073082100DE00711467
:10296000DE2C2400161BDE2C992C711CC02C71103F
:102970009A316C229431F30073082100DB00DE2CC5
:102980009A316C229431F30073082100DE00DE2CB2
:102990005C08F300F4017408003A0319D02CDE2C13
:1029A0007308013A0319962C033A0319A82C013A2B
:1029B0000319B12C073A0319B52CDE2C9A316F227A
:1029C0000800BD00BE01BF0139080339BB003B0848
:1029D000B9000310B90D9C314F24943121003D35CD
:1029E000FE3990312E2094312100BB003B08C000FD
:1029F000400A031D032D390890312E209431210007
:102A0000BB003B08C000400A031D132D9C314F241E
:102A10009431031421003D0D90312E20943121007A
:102A2000BB003B08C000400A031D452D003090311B
:102A30006E2094312100BB00BC013B08BE003C0865
:102A4000BF003F08BC003E08BB00BB0EBC0EF03010
:102A5000BC053B080F39BC04F030BB053B08BE0089
:102A60003C08BF00013090316E2094312100BB0042
:102A70003B08C0004008BB000430BB36890B3D2D2D
:102A80003E083B04BE003F08BF0040080319701F0A
:102A9000512D88302000E9009930EA009B317623DF
:102AA00094319E31612621003F08BA003E08B900EA
:102AB0000800A70022080739303E86000130870051
:102AC0000108A500A601A51BA60323082507AB0046
:102AD0002408263DAC002C08803AA5009030250241
:102AE000031D742D00302B02031C7B2DFF302000B2
:102AF000AB000F30AC002000AC1F802DAB01AC014F
:102B00002C08A6002B08A500A50EA60EF030A605E1
:102B100025080F39A604F030A5052508AB002608C6
:102B2000AC002C08A5002508A8002B08A500250846
:102B3000A900AA010130A5002508AA079C314F244D
:102B4000953120002735FE3990312E209531200017
:102B5000A5002508AD002D0A031DCC2D22089031BB
:102B60002E2095312000A5002508AD002D0A031D5B
:102B7000CC2D280890312E2095312000A500250865
:102B8000AD002D0A031DCC2D290890312E20953142
:102B90002000A5002508AD009E316126953120005A
:102BA0002D0A0319D72D04302A02031C9A2D2D0853
:102BB0000800AB01AC01A901AA0124088400250882
:102BC00085001200203A031DEA2D0130A4070030D1
:102BD000A53DDD2D24088400250885000008F73E6A
:102BE000A600FF3003180030A70000302702053090
:102BF000031926020318022EE52D0130A90000302A
:102C0000AA00342E24088400250885000008A600A8
:102C1000A7012708003A03190E2E382E26082B3A52
:102C20000319342E063A0319FD2D382E240884008A
:102C3000250885000008A6002C08F6002B08F500E2
:102C40000A30F7000030F8009D310A2595317608EA
:102C5000A80026087502A700031CA8032708303E19
:102C6000AB000030283DAC000130A4070030A53D8A
:102C700024088400250885000008D03EA600FF3007
:102C800003180030A700003027020A30031926027B
:102C9000031C162E29082A04031D5A2E2B09A600F0
:102CA0002C09A700A60A0319A70A2608A4002708CA
:102CB000A50008002C08A5002B08A400080020008F
:102CC000B800E0308600013087002D3084000030ED
:102CD00085000730AA0016001A00AA0B6B2E2908DF
:102CE000BA002808B90039083A04031D7B2E2D309C
:102CF000B9000030BA003A08F6003908F5009B31F7
:102D0000D82396317608BE007508BD0021004D0815
:102D10002000BC0021004C082000BB00BC1BA12EE1
:102D20003C08803AAA003E08803A2A02031D9A2EE7
:102D30003D083B020318A12E20003C08BE003B08C2
:102D4000BD0020003E08BC003D08BB0021004B0830
:102D50002000B70021004A082000B60021004E1CC8
:102D6000C32ED02E20302000A0000030A100380853
:102D7000AA002A08A2009F312127963101302000A5
:102D8000BD070030BE3D20003E08803AAA0037084B
:102D9000803A2A02031DCE2E36083D02031CB22EB5
:102DA0002000B401B5013508803AAA003C08803AF9
:102DB0002A02031DDD2E3B0834020318FC2E2000DE
:102DC000390884003A0885000008AA00AB012A08E7
:102DD000A0002B08A1003808AC002C08A2009F31ED
:102DE0002127963101302000B9070030BA3D01306B
:102DF000B4070030B53DD32E21004E18112F1E2FE1
:102E000020302000A0000030A1003808AA002A08C5
:102E1000A2009F312127963101302000BD070030EC
:102E2000BE3D20003E08803AAA003708803A2A02B8
:102E3000031D1C2F36083D02031C002F20003E08F6
:102E4000A9003D08A8000800F701283086000030DE
:102E50008700473FF500F51F4E2F2000A809A9095C
:102E6000AA09AB09AC09AD09AE09AF09A80A031D4F
:102E70004C2FA90A031D4C2FAA0A031D4C2FAB0A85
:102E8000031D4C2FAC0A031D4C2FAD0A031D4C2F04
:102E9000AE0A031D4C2FAF0AF701F70A2030860057
:102EA00000308700473FF500F51F752F2000A0096F
:102EB000A109A209A309A409A509A609A709A00AAD
:102EC000031D752FA10A031D752FA20A031D752F5F
:102ED000A30A031D752FA40A031D752FA50A031D40
:102EE000752FA60A031D752FA70A200020082104AC
:102EF0002204230424042504260427040319CD2FC7
:102F0000F601F60AA71B912FA035A10DA20DA30D66
:102F1000A40DA50DA60DA70D0130F5007508F60747
:102F2000822F27082F02031DAF2F26082E02031D14
:102F3000AF2F25082D02031DAF2F24082C02031DDF
:102F4000AF2F23082B02031DAF2F22082A02031DD7
:102F5000AF2F21082902031DAF2F20082802031CD0
:102F6000C12F2008A8022108A93B2208AA3B230858
:102F7000AB3B2408AC3B2508AD3B2608AE3B2708FD
:102F8000AF3BA736A60CA50CA40CA30CA20CA10C5D
:102F9000A00C0130F602031D912F77080319EE2FC4
:102FA000A809A909AA09AB09AC09AD09AE09AF097D
:102FB000A80A031DEE2FA90A031DEE2FAA0A031D5E
:102FC000EE2FAB0A031DEE2FAC0A031DEE2FAD0A48
:102FD000031DEE2FAE0A031DEE2FAF0A20002808B6
:102FE000A0002908A1002A08A2002B08A3002C0891
:102FF000A4002D08A5002E08A6002F08A700080091
:103000004D34613478342034723461346E34673432
:10301000653420342D343134323438342E342E3467
:103020002B3431343234373421340A3400344334CD
:103030006F34723472342E346F34663466347334C1
:1030400065347434203443344834253464343D3496
:10305000253464346D3456340A3400344F347534B6
:10306000743420346F3466342034723461346E34F6
:1030700067346534203430342E342E3434343034D4
:10308000393435340A340034523441344E34473400
:103090004534203469347334203430347834303457
:1030A00038342E342E3430347834373446340A34BD
:1030B000003443346F347234723420344434413435
:1030C0004334203463346834253464342034253464
:1030D00064346D3456340A340034733465347434D3
:1030E000753470342034663472346F346D34203467
:1030F00045344534503452344F344D340A3400345E
:103100004D34693473347534723461344F347034EF
:103110007A342E343D342534643420346D345634BE
:103120000A34003453346C346134763465344134B9
:1031300044344434203473346534743420343034AB
:1031400078342534583400344334483420347234CD
:1031500061346E3467346534203430342E342E3488
:103160003334313421340A34003444344134433468
:1031700031343234203443346834253464343D34BB
:10318000253464346D3456340A34003444344134C4
:103190004334383420346334683425346434203480
:1031A000253464346D3456340A34003444344134A4
:1031B00043343834203443346834253464343D3463
:1031C000253464346D3456340A3400344534523472
:1031D0005234203444344134433437343534373472
:1031E000383421340A34003456346234693461345A
:1031F00073343D34253464343034203475344134F0
:103200000A340034433468342034723461346E3408
:1032100067346534203430342E342E34373400345F
:10322000443441344334383420344334683425340E
:1032300064343D3430340A340034523465347334E9
:1032400065347434203444344134433431343234BA
:103250000A3400344534723472346F34723420349A
:103260004C344D34373433340A340034523453340C
:103270005434203445344534503452344F344D3472
:103280000A340034563462346934613473343D3462
:1032900025346434203456340A3400344C344D34EC
:1032A0003734333420346534723472346F347234CA
:1032B0000A3400344C344D343734333440343134F0
:1032C00034346234693474340A3400344D34613433
:1032D000793420343134313420343234303432349F
:1032E00033340034563461346C34753465342034EE
:1032F0004F34563452340A34003456346534723400
:1033000031342E3431342D34253473340A340034BE
:1033100049343234433420346634613469346C3493
:103320000A34003450346F347734653472344F3497
:10333000463446340A3400345234583420344F343E
:103340005634463421340A34003450346F347734E0
:10335000653472344F344E340A34003444346534A6
:103360006234753467344F346E340A340034723446
:103370006534613464343A34253473340A340034A7
:103380002534733430342E3431340A340034463426
:10339000613469346C3421340A340034483465347F
:1033A0006C346C346F340A340034543465346D3406
:1033B00070343D34203400342534733431342E34A9
:1033C000313400342534733432342E343134003403
:1033D0002534733430342E3432340034253473348D
:1033E00031342E34323400342534733432342E34B4
:1033F000323400342534733430342E3433340034D2
:103400002534733431342E3433340034253473345A
:1034100032342E343334003425343034323464348E
:103420000A3400344634613469346C340A3400346C
:103430006C346C34733400344F344B340A340034FD
:10344000253464342E3400340A343A343E340034A3
:1034D000FF3F20009111080024001108080024007B
:1034E0001516080021009115080020001814080086
:1034F00023001D121D160800140C890C0139080048
:10350000F500753592000800F50075359300080048
:103510001630210097000800F20072082400910084
:1035200008007608BF007508BE0008007608C300D2
:103530007508C20008007608BB007508BA000800CC
:103540007608C1007508C00008000630890BA62A5D
:1035500000320800F70077089D31CE250800760874
:10356000D9007508D80008007608DB007508DA0075
:10357000080076082200BD007508BC000800760827
:103580002100D3007508D20008000C150C148C1013
:1035900022008C14080076082200DD007508DC008B
:1035A000080076082200DF007508DE0008007608B3
:1035B0002200E1007508E000080076082200D5002E
:1035C0007508D4000800640080010131890BE42AE9
:1035D0000034FE0012001E00FE0BEA2A0034031025
:1035E0002400941E03140030093D080078302100A7
:1035F0009900980122009601080028346E34753431
:103600006C346C34293400342100610803190A2B0E
:10361000013008000030080023001D12FA012100CB
:10362000E201E10123001D1608004934323443341D
:103630002034453452345234203400348030240055
:1036400094000630F500750895049601951208005F
:10365000F50075082300910015139513151400004B
:1036600000002300130808002400951A0800803089
:1036700094000630F500750895049601951608002B
:10368000F5007503031D472B21000D1408002200CF
:103690000D1021000D10080021000D1622008D16BE
:1036A00021008D1222008D1121008D110D110800B5
:1036B0002000181D622B18107308970072089600DE
:1036C000181408007308970072089600080020007C
:1036D000181D712B1810760897007508960018149D
:1036E0000800760897007508960008006B30EF0018
:1036F0006F082100B80020006A08E2006908E100B4
:10370000B830EF006F08E30000309031012008006E
:103710009B311E239B319C3181249B319A31F622AF
:103720009B319A3188229B319C319B249B319F3164
:103730005927080077089F3EA400FF30783DA50078
:10374000003025021A3003192402031808005F30E4
:103750007705F70000307805F80008001110220006
:103760005708F3005608F2009B3158239B31013073
:10377000F40074082100DA0710305A02031C080014
:10378000F017DA010800F50030307502031CCC2B6D
:103790003A307502031CD42B2D3075060319D42B37
:1037A0002B307506031DD62BFF30080000300800B3
:1037B0007608F9007508F800750884007608850019
:1037C00012000319E82B0130F5070030F63DDC2B21
:1037D00078087502F5007908763BF6000800750850
:1037E000D03E2000A000FF30763DA1000030210235
:1037F0000A30031920020318FF2B0130002C00307F
:10380000A200A3012208F5002308F60008007508AD
:10381000BF3E2000A000FF30763DA1000030210215
:103820001A30031920020318172C0130182C00300D
:10383000A200A3012208F5002308F600080075087D
:103840009F3E2000A000FF30763DA1000030210205
:103850001A300319200203182F2C0130302C0030AD
:10386000A200A3012208F5002308F600080075084D
:10387000E03E2000A000FF30763DA1000030210294
:103880005F30031920020318472C0130482C003008
:10389000A200A3012208F5002308F6000800013069
:1038A0009B3140239C319A31A5229C3101309C31BF
:1038B000ED249C319A31A5229C3100309B3140236C
:1038C0009C319A31A5229C3100309C31ED240800B6
:1038D0007908803A2000B00080303002031D722C3D
:1038E000013078020318080078092000B000790937
:1038F000B100B00A0319B10A3008F8003108F90024
:103900000800220090018C018D018E0108302100F9
:103910009000EC308C00D0308D0098308E00230069
:103920008D0120308C00240090018D01210095171D
:1039300022009D010800200099010B309700DC3027
:103940009600111017082200D70020001608220048
:10395000D600210011140030F5000030F6009A3135
:10396000DD223130200098000800F60076082300A0
:1039700091007508930095131513151500308B1BD6
:103980000130F7008B1355309600AA30960095143D
:103990009518C82C1511770C031C8B1303188B1763
:1039A0000800F901F90A2030750676040319E52CA0
:1039B0007508F73EF700FF30763DF80000307802DA
:1039C0000530031977020318F9017908F700F801A7
:1039D0007708F5007808F6000800F5007503031D68
:1039E000052D21008D14FF30F600FF30F700200078
:1039F0008D1808000130F6020030F73B003200322B
:103A00007608770403190800F72C22000D10210016
:103A10008D1008002000A001A101751C142D77084D
:103A20002000A0077808A13D0130F735F80D890B7B
:103A3000152D0130F636F50C890B1A2D7508760414
:103A4000031D0D2D20002108F6002008F5000800B8
:103A5000203075042000A00000307604A10020086A
:103A60009F3EA200FF30213DA300003023021A3008
:103A70000319220203183E2D01303F2D0030A4000F
:103A8000A5012408F5002508F60008002030620290
:103A90000318622D21006308403E86000230870033
:103AA000010823009A000130F20072082100E307A8
:103AB000203063020318E3010130F2007208220093
:103AC000E20708002100111208002000A2000830BF
:103AD0002202031808007808A0002008A10021088D
:103AE000A0002008F5002235203E9C31B5249D31F0
:103AF00079082000A0002008A1002108A0002008CB
:103B0000F5002235213E9C31B52408001030F70025
:103B10007708F800F61F8F2D22000D15912D220039
:103B20000D110130F535F60D890B922D20000D1E7B
:103B30009D2D0130F5070030F63D22008D15063031
:103B4000890BA02D003222008D110130F8020319DB
:103B500008008A2D210061080319AA2D6208A03EE1
:103B60008600013087000108F5007508E000620852
:103B7000B03E8600013087000108F5007508F600A8
:103B80000130F5007508E207103062020318E20107
:103B900091120130E102911676080800F600220029
:103BA00062080319CF2D2100111ADA2D760823009F
:103BB0009A00EF2D11127608F5006408403E860049
:103BC00002308700750881000130F5007508E407B0
:103BD000203064020318E40101302200E2022100D7
:103BE00011160800F50030307502031CFE2D3A3026
:103BF00075020318FE2D7508D03E0800413075028D
:103C0000031C092E473075020318092E7508C93E9A
:103C1000080061307502031C142E6730750203180A
:103C2000142E7508A93E080000300800AE00AC0153
:103C3000AD012C082E07A800280886000130870057
:103C40000108A9002908AB002B08031908002B085C
:103C5000A800A9012808A0002908A1007808AA0046
:103C60002A08A2009F3121279E3101302000AC0795
:103C70000030AD3D192E2708F6002608F50025086E
:103C8000F8002408F7009131EC219E317608A90054
:103C90007508A8002708F6002608F5002508F80092
:103CA0002408F7008731B9277608AB007508AA0009
:103CB0002B08A7002A08A6002908A5002808A400A8
:103CC000080000309C31ED249E319A31A5229E31AE
:103CD00000309B3140239E319A31A5229E31013024
:103CE0009C31ED249E319A31A5229E3101309B31C9
:103CF00040239E31013020000D1C00398D1C0039FD
:103D0000091C842E7016852E7012701A892E0310CD
:103D1000080003140800F901F90A7708D03EA4004E
:103D2000FF30783DA500003025020A300319240237
:103D3000031CAD2E20307704A40000307804A500C9
:103D400024089F3EA600FF30253DA7000030270233
:103D50000630031926020318F9017908A400A50109
:103D60002408F7002508F80008002100BD013D08DF
:103D70003038B9003908BB003B08B90039082000C9
:103D8000A20021003D35203E860001308700403FE3
:103D90002000A300413FA4004A30953159259E31AF
:103DA0002100BA003A08BC003C08031DDF2EE630B3
:103DB0002000E9009830EA009B3176239E310130E3
:103DC0002100B9003908BD0708303D02031808007A
:103DD000B72E9B3134239E314C309A3180229E3154
:103DE0007F309A3184229E317530F5001430F60010
:103DF0009A31BF229E310030F5000030F6009A3132
:103E0000B9229E310030F5000030F6009A31A02230
:103E10009E310030F5000030F6009A3196229E3136
:103E20000030F5000030F6009A3191229E310030CA
:103E3000F5000030F6009A319B229E319A317222B1
:103E400008002208031D2208031D2A2F20089A318A
:103E5000AA2208002208083E8600870116000104F5
:103E600003194E2F2208083E86008701403FA30019
:103E7000413FA4002208023E86008701403FA50082
:103E8000413FA6002608803AA7002408803A27026E
:103E9000031D4C2F230825020318080020002208C8
:103EA000023E860087010130810741310318810AF3
:103EB0000800210091124D30F5001330F6009A31C0
:103EC000D1229F31210011124630F5001D30F6003D
:103ED0009A31D7229F31083023009F0090309D00F7
:103EE00024309E0022309B009C01FE30F5000730FC
:103EF000F6009A31CB229F317830F5001A30F60067
:103F00009A31B4229F310C30F5001B30F6009A3103
:103F1000AF222100E001E401E3012030F70077083F
:103F20002200E200FA012100E201E10191160800FD
:020000040001F9
:08000000FF3FFF3FFF3FFF3F00
:04000E00E43FDF3EAE
:00000001FF
