:020000040000FA
:1000000000008031482808007E1480310B1F4628EC
:100010002100111E15282000111E152822006F082E
:100020008A006E080A00803146282100911E22288D
:100030002000911E222822006D088A006C080A0008
:10004000803146282100921D2F282000921D2F2844
:1000500021005B088A005A080A00803146282100E6
:1000600091192000911928282100911C3E28200078
:10007000911C3E2890313320803146282100111CEC
:1000800046282000111C4628903185207E1009004A
:1000900080314A28AC3084009E308500D030860004
:1000A0000130870007309E3191268031F001F10147
:1000B000FA01CE308400003085001E309E318B2640
:1000C0008031203084000130850042309E318B2603
:1000D0008031A03084000130850030309E318B2685
:1000E0008031203084000230850040309E318B26E4
:1000F0007E10200080317C28F110903170208031FA
:100100008B170B179D302100A8009A30A900903161
:10011000472080312100C901CD014D089E31D026F4
:1001200080312100B7003708CC0049084C07B700E0
:100130003708C90020304D020318A7284C08B70023
:100140004D08A03E8600013087003708810020302E
:100150004D02031CFA2830304D020318FA284D18BE
:10016000C8284C08B700B8014D08E03EB900FF3080
:1001700003180030BA003A0DBA0CB90C3908090757
:10018000203E8600013087003708C03F3808C13F55
:100190004D1CFA284D08E03EB700FF300318003030
:1001A000B800380DB80CB70C37080907203E860098
:1001B000013087004C08B900BA013908BA00B9010A
:1001C000403F3907BC00413F3A3DBD004D08E03E8D
:1001D000BE00FF3003180030BF003F0DBF0CBE0C47
:1001E0003E080907203E8600013087003C08C03FDA
:1001F0003D08C13F30304D02031C0B2938304D0201
:1002000003180B294C08B7004D08103E860001303A
:1002100087003708810038304D06031D13294C082C
:10022000B7003708DC000130B7003708CD07393098
:100230004D02031C8D2839309E31D026803121009B
:10024000B7003708CC004C08490603198D29AC309B
:10025000A8009930A9009031472080312100C901C0
:10026000CD014D08A03E8600013087008101F501D7
:100270004D0891316321803101302100B7003708EA
:10028000CD0720304D02031C3129CD014D36090721
:10029000203E8600013087000030C03FC13FF5019D
:1002A0004D08203E91316321803101302100B7009B
:1002B0003708CD0710304D02031C4629CD014D08EB
:1002C000403E8600013087008101F5014D08303E37
:1002D00091316321803101302100B7003708CD070B
:1002E00008304D02031C5F29DC01DC0A49085C0769
:1002F000B7003708C9005C08B7003708F500383088
:1003000091316321803121004908B7003708F50099
:10031000393091316321803194295F30A8009830C1
:10032000A90090314720803170172100DE01DF01E4
:10033000F0125F08B7003708D8005E08B70037082A
:10034000D9000E1122000E159331A0238031210017
:100350005C080319AE2922000E10B02922000E14E9
:100360009E31F42680319E319E2680319E311826A2
:10037000803103302100B8000830B7007730890B96
:10038000BF29B70BBF29B80BBF2996311C26803176
:100390009331012380319431DC2480312100B70076
:1003A0003708C900490A0319701FDD294E30A8001B
:1003B0009930A900903147208031E5302100A80014
:1003C0009A30A90090314720803120008D1F322AB9
:1003D000F01A332A9431982480312100B70037086D
:1003E000C900490A031D701FFC29D930A8009930A3
:1003F000A900903147208031F013F0169E31C626B7
:10040000803103302100B8004630B700CD30890B71
:10041000072AB70B072AB80B072A00329531C525E2
:1004200080312100B7003708C900490A0319272A7B
:10043000701F212AFB30A8009830A9009031472076
:10044000803180302100B7003708DF00DE010B1358
:100450005F08B7003708D8005E08B7003708D90032
:100460000B17332AF012F01F772A94319824803129
:100470002100B7003708C900490A031D701F472A29
:10048000D930A8009930A90090314720803103303D
:100490002100B8005630B7006330890B4D2AB70BE6
:1004A0004D2AB80B4D2A9531C52580312100B70062
:1004B0003708C900490A03196C2A701F662AFB30E5
:1004C000A8009830A9009031472080318030210069
:1004D000B7003708DF00DE010B135F08B7003708ED
:1004E000D8005E08B7003708D9000B17F0132100B9
:1004F000E001E00AF11CE529CD018731F8278031C0
:10050000003A0319B72A9231372280312100B7000F
:100510003708C9004908E03EB700FF300318003033
:10052000B800003038025F300319370203189A2AE6
:1005300001309B2A0030B900BA013908C0003A08DE
:10054000C100400841040319AE2A4908B7004D080C
:10055000523E860001308700370881000F304D067B
:100560000319B72A0130B7003708CD077D2A2100CB
:100570004D08523E860001308700810111304D0246
:10058000031CC92A7530A8009930A9009031472072
:1005900080312100CD01842FCF30A8009830A900F0
:1005A000C230AA009A30AB00903147208031AE2F84
:1005B00001302100B7003708CD074D08523E8600B4
:1005C00001308700010890315B208031003A031927
:1005D000D82A21004D08523E2000B8000130B90051
:1005E0008931B6218031200038082100B700370852
:1005F000CC004D08523E8600013087000108903142
:100600005B208031FF3A031D0B2B01302100B70026
:100610003708CD07F92A21004D08523E2000B800C6
:100620000130B9008931B62180312000390821001C
:10063000CB00200038082100CA0010304B020030E7
:1006400003194A020318282B08304C02031C302BD4
:10065000E530A8009830A900903147208031AE2FB6
:100660004C35203E8600013087004A08C03F4B08C9
:10067000C13F701F4D2B1630A8009930A9004C08BF
:10068000B700B8013708AA003808AB004B08AD0026
:100690004A08AC0090314720803121004B08F90016
:1006A0004A08F8004C0888310020803121004C08AD
:1006B0003038B7003708CC004C08B70037082000A6
:1006C000A20021004B082000A40021004A082000BD
:1006D000A3004A3088319B2080312100B8003808BF
:1006E000C600460803193F2CD930A8009A30A9004B
:1006F000903147208031973134278031AE2F01303F
:100700002100B7003708CD074D08523E8600013062
:100710008700010890315B208031003A03197F2B5C
:1007200021004D08523E2000B8000130B900893147
:10073000B6218031200038082100B7003708CC00EE
:1007400008304C02031CAB2BCC30A8009930A90018
:1007500090314720803121004D08523E8600013003
:100760008700010890315B208031003A0319BE2BCD
:1007700001302100B7003708CD07AB2B21004D0811
:10078000523E2000B8000130B9008931B6218031D5
:10079000200039082100C800200038082100C700C7
:1007A0004808803AB70080303702031DD92B8030CB
:1007B00047020318E72B21004808803AB7007F3032
:1007C0003702031DE52B803047020318F02B213040
:1007D0002100A8009830A900903147208031AE2F29
:1007E00021004708B7004C08403E860001308700D2
:1007F000370881004C08403E860001308700010820
:10080000B7003708F5004C08303E91316321803144
:10081000701F232C11302100A8009930A9004C082A
:10082000B700B8013708AA003808AB004C08403EB2
:100830008600013087000108AC00AD01AC1BAD03A0
:1008400090314720803121004C08B7003708200044
:10085000A20021004C35203E860001308700403F39
:100860002000A300413FA4004A3088319B20803102
:100870002100B8003808C6004608031D742BCE308E
:10088000A8009A30772B01302100B7003708CD0738
:100890004D08523E860001308700010890315B20F0
:1008A0008031003A0319432C21004D08523E860046
:1008B0000130870030300106031D932CCA01CB01A3
:1008C0007030B70037082000A20021004B0820003C
:1008D000A40021004A082000A3004A3088319B2050
:1008E00080312100B8003808C600701F7E2C5930B6
:1008F000A8009A30A9009031472080312100CD0115
:100900004D35203E8600013087000030C03FC13F9A
:100910000130B7003708CD0708304D02031C802C8A
:1009200089311C21803121004D08523E8600013062
:10093000870031300106031DAE2FCD014D08A03ECA
:100940008600013087008101701FB42CBC30A800E4
:100950009930A9004D08B700B8013708AA00380837
:10096000AB0090314720803101302100B7003708BB
:10097000CD0720304D02031C9E2C96311C26803161
:1009800089311C218031AE2F0130B7003708CD07E7
:100990004D08523E860001308700203001060319C1
:1009A000C42C4D08523E8600013087000108B70074
:1009B0003708CC0031304C06031DE02C7017E12CB9
:1009C0007013701FAE2FAA30A8009A30A900903182
:1009D00047208031AE2F01302100B7003708CD0706
:1009E0004D08523E860001308700010890315B209F
:1009F0008031003A0319EB2C21004D08523E2000B3
:100A0000B8000130B9008931B621803120003808A2
:100A10002100B7003708CC0020304C02031C1D2DEC
:100A20002630A8009930A900903147208031AE2FA0
:100A300001302100B7003708CD074D08523E86002F
:100A400001308700010890315B208031FF3A0319A3
:100A5000182D21004D08523E2000B8000130B90089
:100A60008931B6218031200039082100CB002000D7
:100A700038082100CA0010304B02003003194A0226
:100A8000031C4A2D0030A8009830A900903147205F
:100A90008031AE2F4A08083EB70000304B3DB80009
:100AA0000430B836B70C890B512D3708B900390816
:100AB000C6004608B7004C08A03E860001308700FB
:100AC00037088100701F822D9B30A8009930A90043
:100AD0004C08B700B8013708AA003808AB00460830
:100AE000B900BA01B90EBA0EF030BA0539080F399B
:100AF000BA04F030B9053908AC003A08AD009031BD
:100B00004720803196311C26803121004608B700ED
:100B10003708F5004C089131632180317B2BCD01E2
:100B20004D08A03E8600013087000108B700B801DB
:100B3000B70EB80EF030B80537080F39B804F030EA
:100B4000B7053708CA003808CB008830A8009930AC
:100B5000A9004D08B700B8013708AA003808AB0053
:100B60004B08AD004A08AC0090314720803101307D
:100B70002100B7003708CD0720304D02031C902D0F
:100B8000DD30A8009A30A900903147208031210043
:100B9000CD014D08B70037082000A3004A30963138
:100BA00078268031200024082100CB002000230873
:100BB0002100CA004A0E0F39CA004B0EF039CA0490
:100BC0004B0E0F39CB004D08403E860001308700A8
:100BD0000108B700B801B71BB80337084A02C700BD
:100BE00038084B3BC800C81FF72DC701C80148088B
:100BF000803AB70090303702031D002E00304702C4
:100C0000031C072EFF302100C7000F30C8003A3008
:100C10002100A8009930A9004D08B700B801370895
:100C2000AA003808AB004808AD004708AC00903176
:100C30004720803101302100B7003708CD07083048
:100C40004D02031CC92DDD30A8009A30A900903157
:100C5000472080312100CD019A30A8009830A900AA
:100C60004D08B700B8013708AA003808AB004D0896
:100C7000403E8600013087000108AC00AD01AC1B8E
:100C8000AD0390314720803101302100B700370893
:100C9000CD0708304D020318AE2F2C2E0130B700BF
:100CA0003708CD074D08523E8600013087002030BE
:100CB000010603194E2E4D08523E86000130870072
:100CC0000108B7003708CC0030304C06031D722EE7
:100CD00022000E142100DC01701F7B2B6730A8005E
:100CE0009A30772B22000E102100DC01DC0A9E31A5
:100CF000F42680319E319E26803103302100B800D9
:100D00000830B7007730890B832EB70B832EB80BD2
:100D1000832E96311C26803193310123803194310A
:100D2000DC2480312100B7003708C900490A0319C3
:100D3000701FA12E4E30A8009930A9009031472095
:100D40008031701F7B2B90302100A8009A30772BC8
:100D50000130B7003708CD074D08523E2000B800DB
:100D60000130B9008931B6218031200038082100D6
:100D7000B7003708CC004C080339B7003708CC005F
:100D80004C08B7003708AF006B3088312120803124
:100D900021003008CB002F08CA004C08031DDB2EB1
:100DA0004130A8009830A9004A35AA004B0DAB008D
:100DB00090314720803121004C03031DF62E7D30F9
:100DC000A8009830A9002230F5000030F6004B084A
:100DD000F8004A08F7009331342380317608210067
:100DE000AB007508AA009031472080310230210005
:100DF0004C06031DAE2FB530A8009830A9004B0853
:100E0000B8004A08B700B836B70C3708AA00380847
:100E1000AB00903147208031AE2F5E08B700B8019B
:100E20005F08B900BA013908BA00B90137083904B6
:100E3000CA0038083A04CB004B082000A500210066
:100E40004A082000A4008030A6000030A70092319C
:100E500081228031200027082100C50020002608BB
:100E60002100C400200025082100C3002000240820
:100E70002100C200B630A8009A30A9004308AB0098
:100E80004208AA0090314720803121004508F9002E
:100E90004408F8009031FB20803179082000B3002D
:100EA0007808B2006430B4000030B50091317F2181
:100EB0008031200033082100CB00200032082100BF
:100EC000CA00DF30A8009A30A9004B08B8004A08D1
:100ED000B7000730B836B70C890B6A2F3708AA005D
:100EE0003808AB00903147208031AE2F701FAE2FF5
:100EF0007530A8009A30A9005230AA000130AB002A
:100F0000903147208031AE2F220052082100B700D7
:100F1000B8013808003A03198E2F762F3708413A66
:100F20000319A82E033A0319C42C013A0319842B80
:100F3000073A0319DD2A083A03190D2F1C3A031941
:100F40004E2E023A03198F2D063A0319F02C023A5D
:100F50000319CC2A0C3A0319432C762F2200D20114
:100F6000F110DD292000A101F81FBD2FF709F809B4
:100F7000F70A0319F80AA101A10AF61FC42FF509FF
:100F8000F609F50A0319F60A750876040319EB2F1A
:100F9000A001A00AF61BD62F0130F535F60D890BFE
:100FA000CD2F0130F9007908A007CA2F7608780202
:100FB000031DDC2F75087702031CE22F7508F7026A
:100FC0007608F83B0130F636F50C890BE32F01303B
:100FD000A002031DD62F21080319F32FF709F809E2
:100FE000F70A0319F80A7808F6007708F5000800F0
:100FF000210068080319FE2F0130080000300800A6
:101000002000A20008302202031808007808A0007F
:101010002008A1002108A0002008F5002235203E6C
:1010200091316321883179082000A0002008A100B7
:101030002108A0002008F5002235213E91316321CE
:1010400008002100B300B401B5012F080339B10035
:101050003108AF002F35B1003108AF009031E220E8
:10106000883121003335FE3994311524883121002F
:10107000B1003108B600360A031D46282F08943106
:10108000152488312100B1003108B600360A031D4D
:1010900056289031E220883103142100330D943119
:1010A000152488312100B1003108B600360A031D2D
:1010B000882800309431552488312100B100B201D4
:1010C0003108B4003208B5003508B2003408B10068
:1010D000B10EB20EF030B20531080F39B204F03063
:1010E000B1053108B4003208B500013094315524FF
:1010F00088312100B1003108B6003608B100043053
:10110000B136890B802834083104B4003508B500A5
:1011100036080319701F93288330A8009A30A9005D
:101120009031472088319231AA2221003508B00041
:101130003408AF0008002000A70022080739403E0D
:101140008600013087000108A500A601A51BA603A3
:1011500023082507AB002408263DAC002C08803A64
:10116000A50090302502031DB72800302B02031C78
:10117000BE28FF302000AB000F30AC002000AC1FB9
:10118000C328AB01AC012C08A6002B08A500A50EB6
:10119000A60EF030A60525080F39A604F030A505E7
:1011A0002508AB002608AC002C08A5002508A800DF
:1011B0002B08A5002508A900AA010130A5002508D3
:1011C000AA079031E220883120002735FE3994317A
:1011D000152488312000A5002508AD002D0A031D27
:1011E0000F2922089431152488312000A5002508F4
:1011F000AD002D0A031D0F292808943115248831CC
:101200002000A5002508AD002D0A031D0F2929087F
:101210009431152488312000A5002508AD009231B5
:10122000AA22883120002D0A03191A2904302A0223
:10123000031CDD282D0808002000A301A5012508B6
:10124000A03E8600013087000108A0002008A4000D
:1012500023082407A0002008A3002408A0002008D9
:10126000F500250891316321893101302000A0006B
:101270002008A50720302502031C1F29A5012535BC
:10128000203E8600013087000108A0002008A4004D
:1012900023082407A0002008A3002408A000200899
:1012A000F5002535203E9131632189312000253517
:1012B000203E860001308700403FA000413FA10052
:1012C0002108A2002208A40023082407A000200867
:1012D000A3002408A0002008F5002535213E913107
:1012E0006321893101302000A0002008A5070830C3
:1012F0002502031C3F29A5012508403E8600013038
:1013000087000108A0002008A40023082407A000EB
:101310002008A3002408A0002008F5002508303E7E
:1013200091316321893101302000A0002008A507F8
:1013300008302502031C7C29230821005C072000BB
:10134000A0002008A30021005C082000A0002008C5
:10135000F500383091316321893120002308A00045
:101360002008F50039309131632108002000C501C3
:10137000C601BE01BF01C401C40A3808840039088F
:1013800085001200203A0319D7293808840039084B
:1013900085000008F73EBA00FF3003180030BB009C
:1013A00000303B02053003193A020318C401440817
:1013B000BA00BB013A08C0003B08C1004008410424
:1013C0000319EC290130B8070030B93DBB290130C1
:1013D000BE000030BF001F2A38088400390885008D
:1013E0000008BA00BB013B08003A0319F829232A78
:1013F0003A082B3A03191F2A063A0319E729232A28
:1014000038088400390885000008BA004608B3008F
:101410004508B2000A30B4000030B50091317F2198
:10142000893120003308BC003A083202BB00031C9B
:10143000BC033B08303EC50000303C3DC6000130D7
:10144000B8070030B93D3808840039088500000825
:10145000D03EBA00FF3003180030BB0000303B0222
:101460000A3003193A020318372A0130382A0030AB
:10147000BC00BD013C08C2003D08C3004208430453
:10148000031D002A3E083F04031D522A4509BA00E5
:101490004609BB00BA0A0319BB0A3A08B8003B0860
:1014A000B90008004608B9004508B8000800200047
:1014B000B800D0308600013087002D308400003025
:1014C00085000730AA0016001A00AA0B632A290813
:1014D000BA002808B90039083A04031D732A2D30D0
:1014E000B9000030BA003A08F6003908F50090312A
:1014F0009B208A3176082000BE007508BD002100BF
:1015000053082000BC00210052082000BB00BC1B77
:101510009A2A3C08803AAA003E08803A2A02031D13
:10152000932A3D083B0203189A2A20003C08BE007B
:101530003B08BD0020003E08BC003D08BB00210068
:1015400051082000B700210050082000B6002100FB
:10155000541CBC2AC92A20302000A0000030A10061
:101560003808AA002A08A200933169238A31013081
:101570002000BD070030BE3D20003E08803AAA0092
:101580003708803A2A02031DC72A36083D02031C89
:10159000AB2A2000B401B5013508803AAA003C0806
:1015A000803A2A02031DD62A3B0834020318F52A82
:1015B0002000390884003A0885000008AA00AB0121
:1015C0002A08A0002B08A1003808AC002C08A200B3
:1015D000933169238A3101302000B9070030BA3DC8
:1015E0000130B4070030B53DCC2A210054180A2B35
:1015F000172B20302000A0000030A1003808AA00DE
:101600002A08A200933169238A3101302000BD07E6
:101610000030BE3D20003E08803AAA003708803ADC
:101620002A02031D152B36083D02031CF92A20004F
:101630003E08A9003D08A8000800F70128308600F0
:1016400000308700473FF500F51F472B2000A80911
:10165000A909AA09AB09AC09AD09AE09AF09A80AE5
:10166000031D452BA90A031D452BAA0A031D452B63
:10167000AB0A031D452BAC0A031D452BAD0A031D08
:10168000452BAE0A031D452BAF0AF701F70A2030A0
:10169000860000308700473FF500F51F6E2B2000C5
:1016A000A009A109A209A309A409A509A609A709D6
:1016B000A00A031D6E2BA10A031D6E2BA20A031D97
:1016C0006E2BA30A031D6E2BA40A031D6E2BA50A05
:1016D000031D6E2BA60A031D6E2BA70A20002008EF
:1016E00021042204230424042504260427040319C6
:1016F000C62BF601F60AA71B8A2BA035A10DA20D59
:10170000A30DA40DA50DA60DA70D0130F5007508BC
:10171000F6077B2B27082F02031DA82B26082E0275
:10172000031DA82B25082D02031DA82B24082C021D
:10173000031DA82B23082B02031DA82B22082A0215
:10174000031DA82B21082902031DA82B200828020D
:10175000031CBA2B2008A8022108A93B2208AA3B97
:101760002308AB3B2408AC3B2508AD3B2608AE3B29
:101770002708AF3BA736A60CA50CA40CA30CA20C03
:10178000A10CA00C0130F602031D8A2B7708031967
:10179000E72BA809A909AA09AB09AC09AD09AE094B
:1017A000AF09A80A031DE72BA90A031DE72BAA0A04
:1017B000031DE72BAB0A031DE72BAC0A031DE72B28
:1017C000AD0A031DE72BAE0A031DE72BAF0A20006D
:1017D0002808A0002908A1002A08A2002B08A300BD
:1017E0002C08A4002D08A5002E08A6002F08A7008D
:1017F00008002000B1012030860000308700473FFC
:10180000F500F51F252C2000A009A109A209A309B4
:10181000A409A509A609A709A00A031D222CA10A4B
:10182000031D222CA20A031D222CA30A031D222C15
:10183000A40A031D222CA50A031D222CA60A031D9F
:10184000222CA70A2000B101B10A283086000030FE
:101850008700473FF500F51F512C2000A809A90972
:10186000AA09AB09AC09AD09AE09AF09A80A031D65
:101870004C2CA90A031D4C2CAA0A031D4C2CAB0AA4
:10188000031D4C2CAC0A031D4C2CAD0A031D4C2C23
:10189000AE0A031D4C2CAF0A0130F500750820007C
:1018A000B10632308600003087000830F500003085
:1018B0001E00F50B582C20002008210422042304CC
:1018C00024042504260427040319BC2CB001B00A03
:1018D000A71B772CA035A10DA20DA30DA40DA50D5E
:1018E000A60DA70D0130F5007508B007682CB235BC
:1018F000B30DB40DB50DB60DB70DB80DB90D270864
:101900002F02031D9D2C26082E02031D9D2C250849
:101910002D02031D9D2C24082C02031D9D2C230841
:101920002B02031D9D2C22082A02031D9D2C210839
:101930002902031D9D2C20082802031CB02C20081E
:10194000A8022108A93B2208AA3B2308AB3B240894
:10195000AC3B2508AD3B2608AE3B2708AF3B321415
:10196000A736A60CA50CA40CA30CA20CA10CA00CD1
:101970000130B002031D772C31080319DD2CB209A8
:10198000B309B409B509B609B709B809B909B20A62
:10199000031DDD2CB30A031DDD2CB40A031DDD2C51
:1019A000B50A031DDD2CB60A031DDD2CB70A031D85
:1019B000DD2CB80A031DDD2CB90A20003208A00076
:1019C0003308A1003408A2003508A3003608A4009B
:1019D0003708A5003808A6003908A700080020002D
:1019E000C7003A08CE003B08CF003C08D0003D08B5
:1019F000D1003E08D2003F08D3004008D40041087F
:101A0000D5004E30860000308700473FC200C21F1D
:101A10000B2D01300C2D00302000C300C401430801
:101A2000CC004408CD004C084D040319352DCE09D7
:101A3000CF09D009D109D209D309D409D509CE0AD1
:101A4000031D352DCF0A031D352DD00A031D352D5D
:101A5000D10A031D352DD20A031D352DD30A031DCE
:101A6000352DD40A031D352DD50A2100D31B3C2D5D
:101A7000FD30D405FF30D5055308803A2000C20060
:101A800080304202031D472D01302100520203180D
:101A90004F2D01302000C8000030C900572D210013
:101AA00053082000C900210052082000C80021006E
:101AB00051082000CB00210050082000CA004C082B
:101AC0004D04031D662D2100541D6B2DFF30200099
:101AD000CA07FF30CB3D1F302000D6000030D700B2
:101AE0002400DF01012E20004E084F045004510451
:101AF0005204530454045504031D982D4908803A98
:101B0000C20080304202031D872D013048020318B5
:101B1000982D20004B08803AC20080304202031DFD
:101B2000932D01304A02031C0D2E2100D41C0D2ED2
:101B3000FF302000D607FF30D73D0A30A000A101BA
:101B4000A201A301A401A501A601A7014E08A800B6
:101B50004F08A9005008AA005108AB005208AC0079
:101B60005308AD005408AE005508AF008B311D235B
:101B70008C3120002108F9002008F8009031FB206A
:101B80008C317808303E2000C2005608403E860066
:101B90000230870042088100FF30C807FF30C93D8E
:101BA000FF30CA07FF30CB3D0A30A000A101A201DF
:101BB000A301A401A501A601A7014E08A8004F0892
:101BC000A9005008AA005108AB005208AC00530805
:101BD000AD005408AE005508AF008B31F9238C31AD
:101BE00020002008CE002108CF002208D0002308C2
:101BF000D1002408D2002508D3002608D4002708E5
:101C0000D50020005708803AC20080304202031DF0
:101C10000B2E013056020318732D20004C084D0482
:101C2000031D152E2100541D2D2EFF302000D60738
:101C3000FF30D73D4C084D04031D202E2B30212EA4
:101C40002D30C5000030C6004508C2005608403E91
:101C50008600023087004208810020005608403E7E
:101C6000C2004208AF004B08B1004A08B000470864
:101C70009531722520003008BB002F08BA000800FB
:101C80002000EE00580886008701403FDA00413FFF
:101C9000DB005A0884005B0885001200253A031D0A
:101CA000DD2F580886008701013081074131031874
:101CB000810A2100D001D101D401D501FF30D20029
:101CC000FF30D3002000EA01EB01822E21005414E2
:101CD0002000580886008701013081074131031830
:101CE000810A822E2100D414682E21005415682EFA
:101CF0002100D415682E21005416682E0130EA0008
:101D00000030EB006A086B04031DAB2E58088600F8
:101D10008701403FDA00413FDB005A0884005B083E
:101D200085000008DC00DD015D08003A0319992EEA
:101D30007E2E5C08203A0319782E033A03197B2E75
:101D4000083A0319752E063A0319662E1D3A03192F
:101D5000722E7E2E822E2100541CB22EFD30D40510
:101D6000FF30D5052000580886008701403FDA0083
:101D7000413FDB005A0884005B08850012002A3AC4
:101D8000031DE02E5808860087010130810741318C
:101D90000318810A5908860087010108840085011B
:101DA00002308107003F2100D000013FD100D11F48
:101DB000222F5414D009D109D00A0319D10A222F95
:101DC000580886008701403FB800413FB90089317B
:101DD000B6218E31200039082100D10020003808BA
:101DE0002100D000FB2E58088600870101308107B2
:101DF00041310318810A2000580886008701403FBE
:101E0000DA00413FDB005A0884005B0885000008C7
:101E1000D03EDC00FF3003180030DD0000305D02F2
:101E20000A3003195C020318172F0130182F0030F5
:101E3000DE00DF015E08EC005F08ED006C086D0459
:101E4000031DF32E2000580886008701403FDA006A
:101E5000413FDB005A0884005B0885001200643AA9
:101E60000319412F580886008701403FDA00413F9F
:101E7000DB005A0884005B0885001200693A031DE4
:101E80007B2F5808860087010130810741310318F4
:101E9000810A590886008701010884008501023003
:101EA0008107003FDA00013FDB005A08E0005B08D1
:101EB000E100890D893B8909E200E300E400E500C7
:101EC000E600E7006008BA006108BB006208BC00D9
:101ED0006308BD006408BE006508BF006608C00056
:101EE0006708C1006E088C31EF2420003B08D90040
:101EF0003A08D8000800580886008701403FDA00F9
:101F0000413FDB005A0884005B0885001200733AE9
:101F1000031DAB2F5808860087010130810741312E
:101F20000318810A59088600870101088400850189
:101F300002308107003FE800013FE9006908A9007D
:101F40006808A8006E088A31572220002908D900A5
:101F50002808D8000800580886008701403FDA00AA
:101F6000413FDB005A0884005B0885001200253AD7
:101F7000031DD22F580886008701013081074131A7
:101F80000318810A2530A0000030A1006E08DA0095
:101F90005A08A2009331692301302000D800003094
:101FA000D9000800580886008701013081074131B7
:101FB0000318810AD801D901080058088600870152
:101FC000403FDA00413FDB005A0884005B0885008F
:101FD0000008DC00DD015C08A0005D08A1006E08BF
:101FE000DE005E08A200933169238E31200058087C
:101FF000860087010130810741310318810ACC2F07
:1020000016302100970008002000181D0E28181017
:102010007308970072089600181408007308970058
:102020007208960008002000181D1D281810760858
:102030009700750896001814080076089700750830
:1020400096000800FF3020009B009A0191102100AB
:1020500091140330F5000030F6009E3185267F3064
:1020600020009C0008002000911001302100D607BC
:102070000030D73D00305702103003195602031CC0
:102080000800913147212100D601D7010800AA306C
:102090002000EF006F082100AE002908A1002808E9
:1020A000A000AE302000EF006F082100A200003039
:1020B0009231D4220800F50030307502031C6428E8
:1020C0003A307502031C6C282D30750603196C28F4
:1020D0002B307506031D6E28FF3008000030080005
:1020E0009E31BC26903191312D2190319E31A52613
:1020F00090319031002090319031222090319131F7
:10210000142190319331D8230800200011102100B0
:102110006D08F3006C08F20090310420903101301A
:10212000F40074082100E10710306102031C08006C
:10213000F017E10108007608F9007508F800750845
:1021400084007608850012000319AB280130F507DA
:102150000030F63D9F2878087502F5007908763B37
:10216000F60008007508D03E2000A000FF30763D44
:10217000A100003021020A30031920020318C228EE
:102180000130C3280030A200A3012208F500230873
:10219000F60008007508E03E2000A000FF30763D04
:1021A000A100003021025F30031920020318DA2851
:1021B0000130DB280030A200A3012208F50023082B
:1021C000F600080001309E31E82690319E3133261A
:1021D000903101309131D42190319E3133269031AC
:1021E00000309E31E82690319E3133269031003008
:1021F0009131D42108007908803A2000B000803065
:102200003002031D052901307802031808007809FF
:102210002000B0007909B100B00A0319B10A3008F2
:10222000F8003108F9000800200099010B309700F0
:10223000DC309600111017082100ED002000160870
:102240002100EC0011140030F5000030F6009E3142
:102250007F263130200098000800220090018C0178
:102260008D018E01083021009000EC308C00D030C0
:102270008D0098308E0023008D0120308C002400CA
:1022800090018D012100951722009D010800210079
:10229000600803195629031022000E1D0314031CA5
:1022A000542922000E15562922000E112100E001AA
:1022B0002200620863040319080063088A006208A8
:1022C0000A0091310800F600760823009100750895
:1022D000930095131513151500308B1B0130F70073
:1022E0008B1355309600AA309600951495187629D0
:1022F0001511770C031C8B1303188B170800200093
:10230000B601B701321C88293408B6073508B73D35
:102310000130B435B50D890B89290130B336B20CC3
:10232000890B8E2932083304031D82293708B30034
:102330003608B2000800F901F90A20307506760463
:102340000319AF297508F73EF700FF30763DF80016
:10235000003078020530031977020318F901790873
:10236000F700F8017708F5007808F600080020303B
:1023700021006E020318D2296A08203E860002302E
:102380008700010823009A000130F2007208210042
:10239000EA0720306A020318EA010130F2007208ED
:1023A000EE07080011120800F5007503031DEC2963
:1023B00021008D14FF30F600FF30F70020008D184B
:1023C00008000130F6020030F73B00320032760898
:1023D000770403190800DE2922000D1021008D105A
:1023E0000800F60021006E080319F229111AFC29D1
:1023F000760823009A00102A11127608F5006B085F
:10240000203E860002308700750881000130F5000B
:102410007508EB0720306B020318EB010130EE0268
:102420002100111608001030F7007708F800F61F99
:102430001C2A22000D151E2A22000D110130F5352F
:10244000F60D890B1F2A20000D1E2A2A0130F507E0
:102450000030F63D22008D150630890B2D2A003202
:1024600022008D110130F80203190800172A2100FB
:1024700068080319372A6908303E86000130870052
:102480000108F5007508E7006908C03E86000130C4
:1024900087000108F5007508F6000130F5007508A1
:1024A000E907103069020318E90191120130E802CE
:1024B0009116760808002000AE00AC01AD012C0892
:1024C0002E07A80028088600023087000108A9000E
:1024D0002908AB002B08031908002B08A800A90144
:1024E0002808A0002908A1007808AA002A08A2004C
:1024F00093316923923101302000AC070030AD3DAB
:102500005F2A20002708F6002608F5002508F800B5
:102510002408F70095312025923176082000A90083
:102520007508A8002708F6002608F5002508F80019
:102530002408F7008731B22776082000AB00750821
:10254000AA002B08A7002A08A6002908A500280829
:10255000A400080000309131D42192319E313326FD
:10256000923100309E31E82692319E3133269231ED
:1025700001309131D42192319E3133269231013094
:102580009E31E8269231013020000D1C00398D1C4F
:102590000039091CCD2A7016CE2A7012701AD22A60
:1025A00003100800031408002100A5002108A7005B
:1025B0002008A600CE01CF01260884002708850048
:1025C00012000319FC2AA630A30023082000D8001B
:1025D00021002208A40024082000D9002100250899
:1025E0008E3140269231200058082100CE0720006D
:1025F00059082100CF3DDC2A4F08A1004E08A00059
:1026000008002100B30133083038AF002F08B100B3
:102610003108AF002F082000A20021003335203EF2
:10262000860001308700403F2000A300413FA40006
:102630004A3088319B2093312100B0003008B2002D
:102640003208031D2A2B6230A8009930A90090316E
:102650004720933101302100AF002F08B307083025
:10266000330203180800032B2000A101A201750802
:1026700076040319642BA001A00AF61B492B013034
:10268000F535F60D890B402B0130F9007908A007CC
:102690003D2B0130A135A20D890B4A2B760878021B
:1026A000031D542B75087702031C5B2B7508F7027A
:1026B0007608F83B21140130F636F50C890B5C2BBB
:1026C0000130A002031D492B2208F6002108F50065
:1026D000080020002208031D2208031D732B200878
:1026E0009E31382608002208033E86008701160026
:1026F00001040319962B2208033E86008701403F00
:10270000A300413FA400220A86008701403FA500A4
:10271000413FA6002608803AA7002408803A2702F5
:10272000031D942B23082502031808002000220A09
:10273000860087010130810741310318810A0800B2
:102740009E31DC2693314C309E31292693317F30E7
:102750009E312E2693319430F5001730F6009E31CD
:10276000492693310030F5000030F6009E314326B3
:1027700093310030F5000030F6009E315B26933136
:102780000030F5000030F6009E314F2693310030C6
:10279000F5000030F6009E313D2693310030F50003
:1027A0000030F6009E31552693319E3115260800E3
:1027B00021009112D430F5001630F6009E317326B8
:1027C000933121001112B730F5001130F6009E311F
:1027D00079269331083023009F0090309D002430EB
:1027E0009E0022309B009C010B30F5001E30F6004D
:1027F0009E31672693311B30F5001E30F6009E3166
:102800006D269331B330F5001E30F6009E316126FF
:102810002100E701EB01EA012030F7007708EE0024
:10282000FA01E901E801911608002000A000A101C9
:10283000A01F1C2C01301D2C00309E31E826943145
:1028400020002035F8007808A00001309131D42113
:1028500094319E313326943100309131D42194311A
:102860000130F80078082000A10708302102031C7D
:10287000182C01309E31E82694319E313326943154
:1028800001309131D42194319E3133269431F011AD
:1028900020000D18F01500309131D4219431F01D35
:1028A000532C00300800FF3008002000A000A201D7
:1028B00000309131D421943121000D142000A10168
:1028C0002235F8007808A20001309131D4219431EA
:1028D00020000D1C702C22080138F8007808A20096
:1028E0009E313326943100309131D421943101301E
:1028F000F80078082000A10708302102031C602C92
:1029000020089E31E82694319E31332694310130DF
:102910009131D42194319E3133269431003091315C
:10292000D421943101309E31E8262000220808008D
:102930009031E2209431903094311524943121006B
:10294000AF002F08B0003008031DBC2C701FBA2C3C
:10295000E930A8009930B72C701FBA2C1330A800AA
:102960009A30B72C701FBA2C3D30A8009A30A900BD
:102970009031472000300800013094311524943103
:102980002100AF002F08B00030080319AC2CFC3038
:102990009431152494312100AF002F08B000300885
:1029A0000319B22C9231AA229431F0100318F014BA
:1029B000F01CBA2CFF3008009031E22094319030A6
:1029C0009431152494312100AF002F08B000300855
:1029D000031D002D701FFE2CDB30A8009930FB2C4E
:1029E000701FFE2C0530A8009A30FB2C701FFE2CA7
:1029F0002F30A8009A30A9009031472000300800FD
:102A000004309431152494312100AF002F08B00018
:102A100030080319F02C60309431152494312100D2
:102A2000AF002F08B00030080319F62C9231AA220B
:102A30009431701103187015701DFE2CFF300800C2
:102A40002000A101F61F2B2DF509F609F50A03193F
:102A5000F60AA101A10AF81F362DF709F809F70AAD
:102A60000319F80A0130F9007908A106A201A301AF
:102A7000750876040319652DA001A00AF61B4A2DDE
:102A80000130F535F60D890B412D0130F90079083B
:102A9000A0073E2D0130A235A30D890B4B2D7608E2
:102AA0007802031D552D75087702031C5C2D7508EF
:102AB000F7027608F83B22140130F636F50C890B44
:102AC0005D2D0130A002031D4A2D210803196D2D33
:102AD000A209A309A20A0319A30A2308F6002208DF
:102AE000F50008002000B7002100541C802D2000B4
:102AF0003708B2003208F8002F0892315B22953176
:102B00002000B11B882D3108B6003008B5008A2D91
:102B1000B501B601B301B4013408803AB2003608F9
:102B2000803A3202031D962D350833020318AA2D70
:102B300020302000A0000030A1003708B200320889
:102B4000A20093316923953101302000B307003092
:102B5000B43D8C2D21005418B62D20003708B2004A
:102B60003208F8002F0892315B22953120002F089F
:102B7000F5000230F60090319B20200035087507E3
:102B8000AF003608763DB00008009031E220953164
:102B900090309431152495312100AF002F08B000FA
:102BA0003008031DE92D701FE72DF730A80099307C
:102BB000E42D701FE72D2130A8009A30E42D701FFE
:102BC000E72D4B30A8009A30A90090314720003003
:102BD000080000309431152495312100AF002F08F2
:102BE000B00030080319D92D9031E2209531913091
:102BF0009431152495312100AF002F08B000300822
:102C00000319DF2D00309431552495312100AF0098
:102C10002F08DF0001309431552495312100AF0099
:102C20002F08DE009231AA2295317010031870141B
:102C3000701CE72DFF3008002000AA01AB01220024
:102C40008D118D1218302000A0002008AC00A0309B
:102C50002C07A0002A082007A100210886000130C7
:102C600087000108A200A3012208A6002308A700EC
:102C70002708A1002608A000A00EA10EF030A10593
:102C800020080F39A104F030A0052B08A3002A0862
:102C9000A200220EF039A300A2012208003EA400E7
:102CA0001030233DA50020082404A8002108250495
:102CB000A9002908F6002808F50092311322963160
:102CC00020002C08F83EA0002008AC00AC1F272EE6
:102CD00022008D118D1601302000AA070030AB3D77
:102CE00000302B02083003192A02031808001F2E97
:102CF0002000AA00FF30A5002508A800FF30A5008D
:102D00002508A90023080739A5002508A30090314C
:102D1000E220963120002A35FE399431152496316F
:102D20002000A5002508AB002B0A031DA02E2308B8
:102D300010389431152496312000A5002508AB00E9
:102D40002B0A031DB02E9031E2209631031420008F
:102D50002A0D9431152496312000A5002508AB00DA
:102D60002B0A031DC32E00309431552496312000C8
:102D7000A5002508A8000030943155249631200084
:102D8000A5002508A9009231AA2220002808A50044
:102D9000A6012508A600A50129082507A3002608E5
:102DA0000318260AA40008007A08303E8600013085
:102DB0008700810123001D1DE92E7A08303E860020
:102DC00001308700811422006B088A006A080A001B
:102DD000963123009D1CF82E7A08303E8600013083
:102DE00087000115220069088A0068080A009631E8
:102DF0007A08303E86000130870001080319072F4A
:102E0000220067088A0066080A009731080023003C
:102E10001908F2007A08C03E860001308700720867
:102E200081000130F2007208FA0710307A020318AC
:102E3000FA010130F20072082100E8070A3023008D
:102E40001906031D252F0130262F0030F2000D300A
:102E50001906031D2D2F01302E2F0030720400386B
:102E600003190800F11408002000A401A501250899
:102E7000A03E86000130870001082407A00020083A
:102E8000A4000130A0002008A50720302502031C63
:102E9000372FA5012535203E860001308700010827
:102EA000A0002008A30024082307A0002008A400F5
:102EB0002535203E860001308700403FA000413F7D
:102EC000A1002108A2002208A30024082307A000D3
:102ED0002008A4000130A0002008A5070830250222
:102EE000031C4A2FA5012508403E860001308700BB
:102EF00001082407A0002008A4000130A000200839
:102F0000A50708302502031C732F240821005C0745
:102F10002000A0002008A4002408A0002008F5003C
:102F200039309131632108009E310C2697319E3152
:102F300097269731003A0319A72F9E311F26973104
:102F4000003A0319A52F0130B02F0230B02F9E3167
:102F50001F269731003A0319AF2F0330B02F0430EA
:102F6000F30073082100E300E72F9E310F2697310D
:102F700021006208D83E8600870101089E31242680
:102F800097310130F30073082100E207FD2F9E31D5
:102F90000F269731F30073082100E5007114FD2F0F
:102FA0002400161BFD2FB82F711CDF2F71109E31CE
:102FB0000F269731F30073082100E200FD2F9E31A8
:102FC0000F269731F30073082100E500FD2F6308F9
:102FD000F300F4017408003A0319EF2FFD2F730872
:102FE000013A0319B52F033A0319C72F013A031900
:102FF000D02F073A0319D42FFD2F9E311226080037
:10300000563441344C345534453420344F345534DF
:10301000543420344F3446342034523441344E3406
:10302000473445342034303420342E342E342E347A
:103030002034343430343934353421340D340A34C6
:103040000034563461346C347534653420346F3454
:103050007534743420346F346634203472346134FF
:103060006E346734653420342D343134323438349E
:1030700020342B3431343234373421340A340D3493
:10308000003443346F346E34733475346D346F34BC
:103090002034723461346D346F34203456346234E9
:1030A00069346134733420343D342034253464343D
:1030B00030342034753441340D340A340034523401
:1030C0006534633475347034653472346134743407
:1030D00069342034763461346C346F34723469343A
:1030E000203464346134203445344534503452340F
:1030F0004F344D3420340A340034543465346E3443
:10310000733469346F346E3465342034723461340E
:103110006D346F342034563462346934613473341E
:1031200020343D34203425346434203456340D3476
:103130000A34003443346F34723472342E34203401
:103140006F346634663473346534743420344334F5
:1031500048342534643420343D34203425346434F8
:103160006D3456340D340A3400346D34693473349C
:1031700075347234613420346F3470347A34693485
:103180006F346E3461346C3420343D342034253453
:10319000643420346D3456340D340A3400345634DB
:1031A00065347234733469346F346E34653420346A
:1031B00031342E3430342034643465346C3420346B
:1031C000253473340D340A340034563461346C348D
:1031D0007534653420346F347534743420346F346E
:1031E00066342034723461346E346734653421348B
:1031F0000A340D3400344534723472346F3472340E
:10320000653420346C3465347434743475347234F9
:10321000613420344C344D34373433340A340D3473
:10322000003443346F3472347234203444344134C3
:1032300043342034633468342534643420342534F2
:1032400064346D3456340D340A3400344334483415
:103250002034523441344E344734453420343034F1
:1032600020342E342E3420343334313421340D3490
:103270000A34003444344134433431343234203459
:10328000433468342534643420343D3420342534C8
:1032900064346D3456340D340A3400344C344D34B7
:1032A0002034373433342034733465347434203468
:1032B00074346F34203431343434623469347434C7
:1032C0000A3400344634613469346C3475347234F1
:1032D000653420344434413443343734353437345E
:1032E000383421340D340A34003462347534663491
:1032F00066346534723420346F3476346534723415
:1033000066346C346F34773421340D340A3400342D
:10331000443441344334383420344334683425341D
:10332000643420343D342034253464346D345634D0
:103330000D340A34003444344134433438342034B6
:1033400063346834253464342034253464346D3473
:1033500056340D340A3400345234653473346534D1
:103360007434203445344534503452344F344D3461
:1033700021340D340A340034443441344334383475
:103380002034433468342534643420343D342034CC
:1033900030340D340A340034433468342034723409
:1033A00061346E3467346534203430342E342E3436
:1033B0003734213400344534723472346F3472340B
:1033C0002034493432344334203430342E343134D0
:1033D00000344534723472346F34723420344934DA
:1033E00032344334203431342E34313400344534D3
:1033F000723472346F34723420344934323443348A
:10340000203432342E343134003445347234723442
:103410006F347234203449343234433420343034FD
:103420002E34323400344534723472346F34723492
:103430002034493432344334203431342E3432345D
:1034400000344534723472346F3472342034493469
:1034500032344334203432342E3432340034453460
:10346000723472346F347234203449343234433419
:10347000203430342E3433340034453472347234D2
:103480006F3472342034493432344334203431348C
:103490002E34333400344534723472346F34723421
:1034A0002034493432344334203432342E343334EB
:1034B0000034523465347334653474342034443405
:1034C00041344334313432340D340A34003450340E
:1034D0006F3477346534723420343D3420344F34C3
:1034E000463446340D340A3400347234693463345B
:1034F00065347634753474346F343A34203425347A
:1035000073340A34003472346534613464342034E2
:103510006634613469346C34753472346534003423
:1035200050346F3477346534723420343D34203471
:103530004F344E340D340A340034483465346C341E
:103540006C346F34203457346F3472346C346434D8
:103550000A340034443465346234753467342034BA
:103560006F346E3420340D340A34003454346534EE
:103570006D3470342E3420343D342034253464349A
:103580002E3400344A3461346E34203431343034D3
:1035900020343234303432343234003446346134FE
:1035A00069346C3475347234653421340D340A3422
:1035B00000344F344B3420340D340A340034253475
:1035C0003034323464340A3400340D340A343A343A
:1035D0003E340034FF3FFF3FFF3FFF3FFF3FFF3FD1
:103C1000FF3FFF3FFF3F08002000911108002400F4
:103C2000110808002400151608002100911508004D
:103C300020001814080023001D121D16080024007F
:103C4000140C890C01390800F2007208240091005C
:103C50000800F5007535240092000800F500753560
:103C60002400930008000630890B342E003208002F
:103C7000F70077089131F121080076082200CD0085
:103C80007508CC00080076082200CB007508CA0031
:103C9000080076082100DB007508DA0008007608C5
:103CA0002200D1007508D000080076082200C90063
:103CB0007508C800080076082200CF007508CE00FD
:103CC000080076082200E7007508E600080076087C
:103CD0002200EB007508EA00080076082200E900DF
:103CE0007508E800080076082200ED007508EC0071
:103CF000080076082200EF007508EE00080076083C
:103D00002200E5007508E400080076082200E300C0
:103D10007508E2000800640080010131890B8C2ED7
:103D20000034FE0012001E00FE0B922E0034031021
:103D30002400941E03140030093D080021000C15D6
:103D40000C148C1022008C1408007830210099008B
:103D5000980122009601080028346E3475346C34C2
:103D60006C342934003423001D12FA012100E901CA
:103D7000E80123001D16080080302400940006305E
:103D8000F5007508950496019512080021006D084C
:103D9000F6006C08F500903113202100E1010800C5
:103DA000F5007508230091001513951315140000F4
:103DB00000002300130808002400951A0800803032
:103DC00094000630F50075089504960195160800D4
:103DD000F5007503031DEF2E21000D1408002200CD
:103DE0000D1021000D10080021000D1622008D1667
:103DF00021008D1222008D1121008D110D1108005E
:020000040001F9
:04000E00E43FDF3EAE
:00000001FF
